:020000040800F2
:10000000680600208901000891010008930100089A
:100010009501000897010008990100080000000000
:100020000000000000000000000000009B0100082C
:100030009D010008000000009F010008A1010008C8
:10004000A3010008A3010008A3010008A301000800
:10005000A3010008A3010008A3010008A3010008F0
:10006000A3010008A3010008A3010008A3010008E0
:10007000A3010008A3010008A3010008A3010008D0
:10008000A3010008A3010008A3010008A3010008C0
:10009000A3010008A3010008A3010008A3010008B0
:1000A000A3010008A3010008A3010008A3010008A0
:1000B000A3010008A3010008A3010008A301000890
:1000C000A3010008A3010008A3010008A301000880
:1000D000A3010008A3010008A3010008A301000870
:1000E000A3010008A3010008A301000800F002F822
:1000F00000F03AF80AA090E8000C82448344AAF188
:100100000107DA4501D100F02FF8AFF2090EBAE885
:100110000F0013F0010F18BFFB1A43F0010318473B
:10012000E07A0000007B0000103A24BF78C878C154
:10013000FAD8520724BF30C830C144BF04680C60ED
:10014000704700000023002400250026103A28BF35
:1001500078C1FBD8520728BF30C148BF0B60704739
:100160001FB51FBD10B510BD00F031F81146FFF7E7
:10017000F7FF00F0C3FB00F04FF803B4FFF7F2FF06
:1001800003BC00F057F800000948804709480047C1
:10019000FEE7FEE7FEE7FEE7FEE7FEE7FEE7FEE737
:1001A000FEE7FEE704480549054A064B7047000094
:1001B000F9040008ED00000868000020680600202F
:1001C000680200206802002070477047704775463B
:1001D00000F02CF8AE4605006946534620F00700B3
:1001E000854618B020B5FFF7DDFFBDE820404FF091
:1001F00000064FF000074FF000084FF0000B21F011
:100200000701AC46ACE8C009ACE8C009ACE8C009DD
:10021000ACE8C0098D46704710B50446AFF30080C6
:100220002046BDE81040FFF7A8BF00000048704717
:100230000400002001491820ABBEFEE726000200A2
:10024000704700001148806940F008000F4988613C
:100250000F480068C0F313000D49086008460068A5
:100260000C4908430A490860081D006820F0FF0097
:10027000091D08600846006840F0330008604FF62A
:10028000FF7003490C310860704700000010024005
:10029000000C01400000303370B504462A2000F005
:1002A0007FF9002000F090F9002000F08DF9002087
:1002B00000F08AF9772000F087F92B2000F070F920
:1002C000002000F081F9182000F07EF9002000F0F5
:1002D0007BF9672000F078F92C2000F061F9002507
:1002E0000DE0002608E014F8010B00F06DF914F899
:1002F000010B00F069F9761C782EF4D36D1C502D9B
:10030000EFD370BD002116E020220C4B1A6000F0E4
:10031000800212B940221A6003E04022074B1B1FE3
:100320001A604206100E2022044B1B1F1A601B1D70
:100330001A604A1CD1B20829E6DB7047140C014050
:100340000021304A1161D160142151610021916175
:10035000D1611146096841F00101116011464968F7
:10036000294A1140274A516011460968274A11401D
:10037000244A11601146096821F480211160114658
:10038000496821F4FE01516000BF1E494968C1F36C
:1003900081010029F9D11B4A91601146096841F495
:1003A0008031116000BF17490968C1F3404100293D
:1003B000F9D04FF48061134A5160811EC8B21146D2
:1003C000496841EA804151601146496841F48031F1
:1003D00051601146096841F08071116000BF094900
:1003E0000968490E0029FAD00649496841F002011E
:1003F000044A516000BF03494968C1F381010229E1
:10040000F9D17047001002400000FFF8FFFFF6FE30
:1004100010B500F001F810BD0CB50020019000905F
:100420003348006840F480303149086000BF3048EC
:10043000006800F4003000900198401C0190009882
:1004400018B90198B0F5A06FF1D12948006800F4FF
:10045000003010B10120009001E0002000900098D1
:10046000012843D12348006840F01000214908606A
:100470000846006820F0030008600846006840F065
:10048000020008601A4840681949486008464068F8
:1004900048600846406840F480604860084640680C
:1004A00020F47C1048600846406840F4E81048603A
:1004B0000846006840F08070086000BF0C48006883
:1004C00000F000700028F9D00948406820F00300CF
:1004D000074948600846406840F00200486000BF95
:1004E0000348406800F00C000828F9D10CBD00005A
:1004F000001002400020024010B51348006840F090
:1005000001001149086008464068104908400E493A
:100510004860084600680E4908400B4908600846D4
:10052000006820F4802008600846406820F4FE003F
:1005300048604FF41F008860FFF76AFF4FF00060CB
:100540000449086010BD0000001002400000FFF8E0
:10055000FFFFF6FE08ED00E000B52A2000F020F8CD
:10056000002000F031F8002000F02EF8002000F00C
:100570002BF89F2000F028F82B2000F011F8002025
:1005800000F022F8182000F01FF8002000F01CF8FE
:10059000672000F019F82C2000F002F800BD0000E0
:1005A00010B504464FF480700649086040000860AA
:1005B0002046FFF7A7FE4FF400700249091F0860AC
:1005C00010BD0000140C014010B504464FF48070BB
:1005D000064908604000091D08602046FFF792FEAA
:1005E0004FF400700149086010BD0000100C01407C
:1005F00030B5FFF7B1FF00240BE0002506E0002036
:10060000FFF7E2FF0020FFF7DFFF6D1CA02DF6D300
:10061000641C502CF1D330BD70B50446FFF79CFF2D
:1006200000250CE0002607E0C4F30720FFF7CCFF0D
:10063000E0B2FFF7C9FF761CA02EF5D36D1C502D3C
:10064000F0D370BD00B52020774908608020086095
:100650004FF47A7000F0EAF880207349091F0860AF
:100660004FF47A7000F0E2F8FE20FFF799FFFE20C9
:10067000FFF796FFFE20FFF793FFEF20FFF790FFB5
:10068000B320FFF78DFF0320FFF79EFF3620FFF713
:1006900087FF6820FFF798FF3A20FFF781FF0520CA
:1006A000FFF792FFB620FFF77BFF1120FFF78CFFCB
:1006B000AC20FFF775FF0B20FFF786FFB420FFF794
:1006C0006FFF2120FFF780FFB120FFF769FFC020F7
:1006D000FFF77AFFE620FFF763FF5020FFF774FF74
:1006E0004320FFF771FFE720FFF75AFF5620FFF77F
:1006F0006BFF4320FFF768FFF020FFF751FF1F203B
:10070000FFF762FF4120FFF75FFF1B20FFF75CFF51
:100710005520FFF759FF3620FFF756FF3D20FFF722
:1007200053FF3E20FFF750FF0020FFF74DFF16203C
:10073000FFF74AFF0820FFF747FF0920FFF744FFB4
:100740001520FFF741FF1420FFF73EFF0F20FFF7B2
:100750003BFFF120FFF724FF1F20FFF735FF41206B
:10076000FFF732FF1B20FFF72FFF5520FFF72CFF6D
:100770003620FFF729FF3D20FFF726FF3E20FFF739
:1007800023FF0020FFF720FF1620FFF71DFF0820A2
:10079000FFF71AFF0920FFF717FF1520FFF714FFD7
:1007A0001420FFF711FF0F20FFF70EFFFE20FFF7C9
:1007B000F7FEFF20FFF7F4FE3520FFF7F1FE0020E3
:1007C000FFF702FF4420FFF7EBFE0020FFF7FCFEDF
:1007D0001120FFF7E5FE782000F028F82920FFF728
:1007E000DFFE2A20FFF7DCFE0020FFF7EDFE0020F1
:1007F000FFF7EAFE0020FFF7E7FE9F20FFF7E4FE89
:100800002B20FFF7CDFE0020FFF7DEFE1820FFF7BC
:10081000DBFE0020FFF7D8FE6720FFF7D5FE2C2077
:10082000FFF7BEFE00BD0000140C0140002106E0F1
:10083000002200E0521CB2F5617FFBD3491C8142CB
:10084000F6D370472DE9F04704460E461746984602
:1008500025464FF000092A20FFF7A2FEC5F3072026
:10086000FFF7B2FEE8B2FFF7AFFE0F342546C5F33F
:100870000720FFF7A9FEE8B2FFF7A6FE2B20FFF73F
:100880008FFE0020FFF7A0FE06F11801C8B2FFF7A7
:100890009BFE0F360020FFF797FE06F11801C8B245
:1008A000FFF792FE2C20FFF77BFE002521E098F851
:1008B00000A04FF0000916E00AF0010038B1C7F3BC
:1008C0000720FFF781FEF8B2FFF77EFE05E000206B
:1008D000FFF77AFE0020FFF777FE4FEA6A0A09F178
:1008E000010000F0FF09B9F1080FE5DB08F101088C
:1008F0006D1C202DDBD3BDE8F0870000444845493E
:1009000008600420FFF71CFDFFF79CFCFFF79AFE30
:100910007CE04FF47840FFF77FFE4FF4FA60FFF77A
:1009200085FF4FF4FC60FFF777FE4FF4FA60FFF7A6
:100930007DFF1F20FFF770FE4FF4FA60FFF776FF90
:10094000FFF756FE4FF4FA60FFF770FF324B4FF49B
:10095000784200213020FFF775FF2F4B20334FF4F2
:10096000FC6200217020FFF76DFF2B4B40331F22EC
:100970001E210020FFF766FF274B60334FF6FF7202
:100980001E212020FFF75EFF234B80331F221E21F4
:100990004020FFF757FF204BA0334FF4FC621E218D
:1009A0006020FFF74FFF1C4BC0334FF478421E21ED
:1009B0008F20FFF747FF184BE0331F222E214820DE
:1009C000FFF740FF154B4FF4FC622E215820FFF734
:1009D00039FF124B20334FF4784240214820FFF773
:1009E00031FF0E4B40331F2240215820FFF72AFFD2
:1009F00041F28830FFF71AFFFFF7FAFD054800685B
:100A0000FFF74AFC47F23050FFF710FF81E7000084
:100A1000200A000800000020A07A0008A07B00083F
:100A20008D628D4285017CC174806C606C606C80CD
:100A300074A17CC1850185428D62958295A29DC27B
:100A40009E02A642AE83B6C4C726C747CF47CF682B
:100A5000D789D789DFABE7CCE7CDE7CDE7CDE7CEC8
:100A6000E7CDE7CDE7CDE7CDEFCDEFCDEFCDEFCDC6
:100A7000E7CCE7CCE7CBDFCBDFAAD7A9D788D788ED
:100A8000D787D767CF66C726C705BEE5B6C5B6C543
:100A9000AE84A664A6249DE395A395838D428D2202
:100AA000852285017CC174C174A174816C4064206D
:100AB000642064206400642064206C206C206C40FE
:100AC000744074807CC184E18D228D42956295A230
:100AD0009DA29DC2A5C2A5E3AE03B644BE85C6C60F
:100AE000CEC6CEE6CF06D706D726D726D726D70638
:100AF000D706DF47DF47DF47DF48DF48DF48DF480B
:100B0000E768E768E789E789EFA9EFAAEFAAEFAA04
:100B100095A395838D4285027CC174A174A174A1B3
:100B200074A17CC17D0185428D6295829DC29DE24A
:100B30009E02A643AE84B6C5C726C727CF47CF6857
:100B4000D768D789DF8ADFABE7ACE7ADE7ADE7ADC4
:100B5000E7CDE7CDE7CDE7CDEFCDEFCDEFCDE7CCDE
:100B6000E7CCE7CBE7CBDFAADFAAD789D788D7883E
:100B7000D787D767CF66C726C705BEE5B6C5B6C453
:100B8000A664A6449E239DE395A395838D428D4242
:100B900085228522850285027CE27CE274A274A211
:100BA000748274816C6174817481748174817C81BC
:100BB0007C8184C285028D228D62958295A39DC31E
:100BC000A5E3A603AE03AE03B644BE85C6A6C6C65D
:100BD000CEE6CF06D706D726D727D726D726D726BD
:100BE000D726DF67DF67DF67DF68DF68DF68DF681A
:100BF000E788E788E789E789EFA9EFAAEFCAEFCA94
:100C0000A5E49DC495838D63852285017CC17CC14B
:100C100074A07CC17D0185418D6295A29DE39E03F8
:100C2000A622AE63B6A4B6E5BF06C726C727CF4740
:100C3000D789D789DFABDFCBE7CCE7CDE7CDE7CDF1
:100C4000E7CDE7CDE7CDE7CDE7CDE7CDE7CDE7AC25
:100C5000E7ACE7ABDFABDFAADFA9D789D788CF87BF
:100C6000D787CF67CF46C726BF05B6E5B6C4AEA4C3
:100C7000A6639E239E039DE395C395828D628D623C
:100C80008D628D638D638D4385227D027CE27CE2E3
:100C90007CE27CC27CC27CC27CC27CC27CC284E21C
:100CA00084E28D228D4395639DA39DC39DC3A603BE
:100CB000AE24AE24AE44B664BE85C6A6CEC6CEE68D
:100CC000CEE6CF06D706D726D727D726D726D726CC
:100CD000DF47DF67DF88DF67E788E788E788E7893E
:100CE000E7A9E789E7A9E7A9EFA9EFAAEFCAEFCA41
:100CF000A624A6049DE49DA395838D4285027CE1F4
:100D000074A07CE085218D418D8295A29DE39E0398
:100D1000A623AE63B6A4B6C5BF06C706C726CF478F
:100D2000D789D78ADFABE7CCE7CCE7CDE7CDE7CDF6
:100D3000E7ADE7CDE7CDE7CDE7ADE7CDE7ACE7AC95
:100D4000E7ABE7ABDFABDFAAD789D788CF88CF6720
:100D5000CF67CF46C746C705BEE5B6C4AEA4AE84CE
:100D6000A6639E229DE29DE295C395A2958295A3DE
:100D70009583958395838D638542850285028502DF
:100D800085037CE27CE284E284E284E285028502DF
:100D90008D229563958395A39DC49DE3A603A60428
:100DA000AE44B664B665BE85C6A5C6C6CEE6CEE779
:100DB000CEE6D707D727D727D727D727D727D726AE
:100DC000DF67DF88DF88DF88E788E788E789E789EA
:100DD000E7A9E7A9E7A9E7A9EFA9EFAAEFAAEFAA70
:100DE000AE44AE44A604A5E49DC495A38D628521BE
:100DF0007CE0850185418D8295A295C29DE39E038D
:100E0000A623AE84B6A4B6C5BEE6C706C727CF687C
:100E1000D789D78ADFABDFABE7CCE7CCE7CDE7CD2F
:100E2000E7ADE7CDE7CDE7CDE7ADE7CDE7ACE7ACA4
:100E3000E7ABE7ABDFAADF89D789D788CF68CF6771
:100E4000CF47CF46C726BF05BEE4B6C4AEA4AE8327
:100E5000A6639E229DE29DE29DC39DC29DC39DE32C
:100E60009DC39DC395A395838D638D438D438D4213
:100E700085228502850285028D228D238D238D4357
:100E8000956395839DA39DA3A5E3A5E3A603AE2447
:100E9000AE44B664BEA5BEA5C6C5C6E6CF06D70796
:100EA000D707D727D727D747D727DF47DF47DF47DA
:100EB000DF68DF88DF68DF88E789E788E789E78917
:100EC000E788E788E7A9E7A9EFA9EFA9EFA9E7A9CC
:100ED000B664B664AE44AE24A604A5E49DA39562B0
:100EE0008D418D418D6295A295C295C29DE29E0372
:100EF000A643AE84AEA4B6C5BEE5C706C727CF6875
:100F0000D789D789DF8ADFABDFACE7ACE7ADE7CDC8
:100F1000E7CDE7CDE7CDE7CCE7ACE7CCE7ACE7AB97
:100F2000E7ABDFAADF8AD789D788CF68CF67CF67DB
:100F3000CF46C746C725BF05BEE4B6C4B6A3AEA319
:100F4000AE83A643A6239E039E039DE39DE3A604D2
:100F5000A6049DE395C395A395838D828D628D62D2
:100F60008522852285228D228D428D428D43956377
:100F70009D839DA39DC3A5C3A604A604AE23AE4432
:100F8000B664BE85BEA5C6A5C6C5C6E6CF07D7272B
:100F9000D727D728D728D748DF47DF47DF47DF677E
:100FA000DF68DF88DF68E788E7A9E789E789E7A9DD
:100FB000E788E788E789E7A9E7A9E7A9E789E78953
:100FC000B684BEA5B685B664AE44AE44A6049DC341
:100FD0009582958295A295C295C295C29DE29E2367
:100FE000A643AE84B684B6A5BEE6C706C727CF68BB
:100FF000D769D769D78ADFAADFABDFACDFACDFAC5C
:10100000DFACDFCCE7CCE7CCE7CCE7CCE7ACE7ABB9
:10101000DFAADFAAD789D788D768CF67CF67CF661F
:10102000C746C726C725BF05BEE4B6C4B6C4B6A327
:10103000AEA3AE83A643A643A623A623A603A60378
:10104000A604A6039DE39DC39DA395A395829562E7
:101050008D428D428D428D42956295629563958356
:101060009DC3A5E3A5E3A603AE24AE44AE44B66497
:10107000B684BEA5C6C5C6C6CEE6CF06D707D72757
:10108000D728DF28DF28DF28DF48DF48DF48DF6890
:10109000DF68DF68DF68E768E7A9E789E788E7A92D
:1010A000E788E788E788E788E7A9E789E788E788A6
:1010B000BEC5BEC5BEC5BEA5B685B685AE44A60432
:1010C0009DC39DC29DC29DE29DE295C29DE29E236D
:1010D000A663AE84B684B6A5BEE6C706C727CF47CB
:1010E000CF48CF68D769D78AD78ADF8BDF8BDF8B72
:1010F000DFABDFABDFCBDFABE7ABE7ABE7ABDF8B88
:10110000DF8ADF8AD789D768CF67CF47CF66CF46D8
:10111000C726C725BF05BF05BEE4B6C4B6C4B6A37F
:10112000AEA3AEA3AE83A663AE43AE43A623A6038F
:10113000A6039E039E039DE39DE39DE39DC39DC384
:1011400095A39582958295A39DA39DC39DC3A5C399
:101150009DC3A5E3A603A603AE44B644B664B66435
:10116000BE85C6A5C6C6C6E6CF06D727D727D727CA
:10117000DF49DF49DF49DF48DF48DF68DF68DF68D4
:10118000DF68DF68DF68E768E788E788E788E7887F
:10119000E7A8E788E788E788E788E788E788E788B7
:1011A000C6E6C706C6E6C6E6BEC6BEC6B6A5B665F0
:1011B000A5E39DE29DC29DC295C19DE29E029E2235
:1011C000AE43AE84B6A4BEC5BEE5C706C727C727D3
:1011D000CF48CF48CF49D769D769D76AD78AD78A46
:1011E000DF8BD7ABDFABDFABDF8BDFABDFABDFAAF8
:1011F000DFAAD789D768CF67CF67CF47C746C7462B
:10120000C725C725BF05BEE4B6C4B6C3B6A3B6A3FB
:10121000B6A3B6A3B6A4B684AE64AE43AE43A623CB
:10122000A623A623A603A603A603A603A603A5E357
:10123000A5E3A5E39DC39DC3A5E3A604A604AE2430
:10124000AE04AE23AE44B664B685BE85BE85BEA5EB
:10125000C6C5C6C6CEE6CF07D707D727D728D748F3
:10126000DF28DF49DF69DF69DF69DF69DF68DF68A1
:10127000DF68DF68DF68E768E788E788E788E7888E
:10128000E7A8E788E788E788E788E767DF67DF6739
:10129000CF26CF26C706C6E6C6E6C6E6BEC6BEA6AB
:1012A000AE24A6029DE29E029DE29E02A623A643D4
:1012B000AE43AE84B6A4B6C5BEE5BF06C726C70614
:1012C000C727C727CF48CF48CF49D769D78AD78AFA
:1012D000D78AD78ADFAADFAADF8ADFAADFAADFAA36
:1012E000DF89D789D768CF67CF67CF66C746C7463C
:1012F000C725C705BF05BEE4BEE4B6C4B6C4B6C4C0
:10130000B6C4B6C4B6A4B6A4B684AE64AE63AE43E7
:10131000AE43A623A623A623A623AE23AE24AE2443
:10132000A623A603A603A603AE24AE24AE44AE4471
:10133000AE44AE44B664B684BE85BEA5C6A5C6C6D8
:10134000CEC6CEE6CF07D707D728D728DF48DF4855
:10135000DF49DF69DF69DF69DF69DF69DF69DF686E
:10136000E768E768DF68E768E768E788E788E788AD
:10137000E788E788E788E788E787DF67DF67DF6771
:10138000CF47CF47CF27CF27CF27CF27C707C6E6DF
:10139000B685AE23A603A623A643AE43AE63AE63D3
:1013A000AE63AE84B6A4B6C4BEE5C706C706C7061C
:1013B000C706C706C727C727CF48CF48CF69D76911
:1013C000D769D789D78AD78ADF8ADFAADFAADFAAB7
:1013D000D789D788D768CF67CF67CF46C746C72595
:1013E000BF05BF05BEE4BEE4BEE4BEE4BEE4BEE4A9
:1013F000B6C4B6C4B6A4B684B684AE83AE64AE63D7
:10140000AE63AE43AE43AE43AE43AE44B664B664E1
:10141000AE44AE44AE44AE44B664B665B665B6649A
:10142000B684B684B684BE85BEA5C6A6C6C6CEE7BB
:10143000CEE7D707D728DF28DF49DF49DF49DF4973
:10144000DF69E76AE76ADF69DF69DF69E769E7683B
:10145000E768E768DF68DF68DF68DF67DF67DF6747
:10146000DF67DF67DF67DF67DF67DF46DF46DF46AF
:10147000D748D748D748D748D748D748CF28CF27C5
:10148000BEC6B664AE43AE63AE83AE83B683B6A4C7
:10149000B683B6A4B6A4B6C4BEE5C705C706BF05E5
:1014A000C706C706C706C706C727C727CF48CF68DE
:1014B000CF68CF68D789D789D789DFA9DFAADF8925
:1014C000D788D768CF67CF47CF47CF46C746C7250E
:1014D000BF05BF05BEE4BEE4BEE4BEE4BEE4BEE4B8
:1014E000B6C4B6C4B6A4B6A4B684B684B684B6846C
:1014F000B684B684B664B664B664B684B684B6847C
:10150000B664B664B664B684B685B685B685B68567
:10151000BEA5BEA5BEA5BEA5C6A6C6C6CEE6D707B5
:10152000D728D728DF48DF49DF69DF69DF69DF694E
:10153000E76AE78AE76ADF69DF69DF69DF68DF4852
:10154000DF48DF68DF48DF47DF47DF47DF47DF4748
:10155000DF47DF46DF46DF46DF46D725D725D725DD
:10156000D749D769D769D769D769D769D748CF2805
:10157000C706BEA5B684B684B6A4B6A4B6A4B6A45F
:10158000B6A4B6C4B6C4BEC4BEE5C705C705BEE5AD
:10159000BF05BF06BF06BF06C706C726C747CF475A
:1015A000CF47CF68CF68D789D789D7A9DF89D789AF
:1015B000D768D768CF67CF67CF47CF46C746C7251D
:1015C000BF05BF05BEE4BEE4BEE4BEE4BEE4BEE4C7
:1015D000BEE4BEE4BEC4BEC4B6C4B6A4B6A4B6A43B
:1015E000BEA4BEA4BEA4BEC5BEC5BEC5BEC5BEC546
:1015F000BEA5BE85BE85BEA5BEA5BEA5BEA5BEA513
:10160000BEA5BEA5C6A5C6C6C6C6CEE7CEE7D70848
:10161000D728DF29DF49E76AE76AE76ADF6ADF6A16
:10162000E76AE76AE76ADF69DF49DF49DF48DF2702
:10163000DF48DF47DF47DF47DF47DF47DF47DF4779
:10164000DF46DF26D726D726D725D725D725D72586
:10165000D769D78ADF8ADF8ADF8ADF8AD769D748E6
:10166000CF27C6E6BEC5BEC5BEC4BEC4BEC4B6A4F2
:10167000B6C4B6C4BEC4BEC4BEE5BF05BF05BF0583
:10168000BF05BF05BF05BF05BF06C706C727C747BC
:10169000C747CF67CF68D788D788D789D789D788F2
:1016A000D768D768CF67CF67CF47CF46C746C7252C
:1016B000BF05BF05BF04BEE4BEE4BEE4BEE4BEE4B5
:1016C000BEE4BEE4BEE4BEE4BEE5BEC5BEC5BEC566
:1016D000BEC5BEC5BEE5BEE5C6E5BEE5BEC5BEC56A
:1016E000C6C5BEA5BEA5BEA5BEA5BEC5BEC5BEC55A
:1016F000BEC5BEC5C6C6C6E6CEE7CEE7D708D70884
:10170000DF49DF49E74AE76AE76AE76AE76AE76AC3
:10171000DF6AE76ADF69DF69DF49DF49DF28D7274A
:10172000DF28DF47DF27DF47DF47DF47DF47DF47C8
:10173000DF46D726D726D725D725D705D705D725DE
:10174000DFABDFABDFABDFABDFABDFAADF89D769B6
:10175000D748CF27CF26C705BEC4BEE4BEE4BEC36C
:10176000B6C4BEE4BEE4BEE4BEE4BF05C705C7051B
:10177000C725C705BF05BF05BF05C726C726C7467E
:10178000C746CF67CF68CF68D788D788D788D7684C
:10179000D768D768CF67CF67CF67CF46C746C7251B
:1017A000BF25BF25BF05BF05BF04BF04BEE4BEE41F
:1017B000BF04BF04BEE5BEE5BEE5BEE5BEE5BEE5D1
:1017C000BEE5C6E5C706C706C6E6C6E5C6E5C6C5A4
:1017D000C6E5C6C5C6C5C6C5C6E5C6E6C6E6C6E60E
:1017E000C6E6C6E6CEE6CF07CF27D707D728DF293C
:1017F000DF49E74AE76AE76AE76BE76BE76BE76BA6
:10180000E76AE76ADF69DF49DF49DF49DF48DF2749
:10181000DF48DF47DF47DF47DF47DF47DF47DF6678
:10182000DF46DF26D725D725D725D705D705D725E6
:10183000DFACE7CCE7CCE7CCE7CCE7CBDFAADF8AAD
:10184000D748D768D747C726C6E5C6E4BEE4BEC4B6
:10185000BEC4BEE4BF05BEE5BEE5C705C705C725D6
:10186000C746C725C725BF05BF05C705C726C72665
:10187000C746CF67CF87CF88D788D788D788D7681C
:10188000D768D768D767CF67CF67CF46C746C72522
:10189000BF25BF25C725BF05BF05BF05BF05BF05C0
:1018A000C725C725C705BF05BF05C706C706C706A5
:1018B000C706C706CF26CF26CF06C706C706CF0660
:1018C000CF06CF06CF06CF06C706C706C706C70690
:1018D000C706C706CF07CF28D728D728D729DF497B
:1018E000E76AE76AE76AE76BE76BE76BE78BE78B2B
:1018F000E76AE76ADF6ADF49DF49DF49DF48DF2857
:10190000DF48DF48DF47DF47DF47DF47DF67DF4785
:10191000DF47D746D726D725D725D725D705D725BB
:10192000E7AEE7CEE7CEEFCEE7CDE7ACDFABDF8BC0
:10193000D789D789D768CF47CF26C725C704BF0423
:10194000BEE4BF05BF05BF05BF05C725C725C74501
:10195000C725C745C745C725BF05BF05C725C72636
:10196000C746CF46CF47CF67CF87D788D788D78896
:10197000D788CF68CF67CF67CF67C746C746C74509
:10198000C765C745C725C726C706C706BF06C726FA
:10199000C725BF25C725C725C725C706C706CF2723
:1019A000CF27CF47CF47CF27CF27CF27CF27CF2747
:1019B000CF27CF27CF27CF27CF06CF06CF06CF27DA
:1019C000C706CF07CF27D748D748D749DF49DF49D0
:1019D000E76AE78BE78BEFACEFACE78BE78BE78B46
:1019E000E78BE78AE76ADF69DF49DF28DF28E769F5
:1019F000DF28DF48DF48DF27DF27DF47DF47D7471C
:101A0000DF47D746D725D745D725CF04CF04D725DD
:101A1000E7CEEFCEEFCFEFCEE7CEE7ADDFACDFAB7B
:101A2000DF8AD789D788D767CF46C725C724C72479
:101A3000BF05BF05BF05BF25C725C725C745C74586
:101A4000C745C745C725C725C705C705C725C72536
:101A5000C725C746CF46CF66CF67CF87CF87CF870B
:101A6000CF67CF67CF67CF67CF66CF66C746CF66F2
:101A7000CF65C745C745C746C726C726C726C72659
:101A8000C726C745C745C745CF26CF26CF27CF276F
:101A9000CF28CF48CF48CF47CF47CF47CF47CF27D3
:101AA000CF27CF27CF27CF47CF27CF27CF27CF2766
:101AB000CF27CF27D728D748D749DF49DF4ADF6A62
:101AC000E78BE78BE78BEFACEFACE78BE78BE78B34
:101AD000E78BE78ADF6ADF69E769DF49DF28E748E4
:101AE000DF28DF48DF48DF27DF27DF47D747D72753
:101AF000D747D726D726D726D725CF05CF05D72531
:101B0000EFCFEFCFEFEFEFEFEFCEE7ADE7ADE7AC25
:101B1000DFABDFAADF89D768CF67CF46C725C725E8
:101B2000C746C725C725C725C745C745C765C74594
:101B3000C745C745C725C725C725C725C725C72505
:101B4000C725C725C746CF46CF66CF67CF67CF67C4
:101B5000CF47CF46CF47CF66CF66CF66CF66CF663B
:101B6000CF65CF65CF45CF46CF46CF46CF46CF478F
:101B7000CF46CF46CF47CF47CF47CF47D748D748A5
:101B8000D748D768D768D748D748D768D748CF4805
:101B9000D748D748D748D747D748D747D748D7484F
:101BA000CF47CF48D748D748D749DF69DF6AE78BA7
:101BB000E78BE78BE78BE78BE78CEFACEFACEFAC19
:101BC000E7ABE78ADF6ADF69E769E769DF48DF28B3
:101BD000DF28DF28DF27D727D727D747D747D726BC
:101BE000D726D726D726D725D725CF25CF25CF252A
:101BF000EFCFEFEFEFEFEFEFEFCEE7CEE7ADE7ACF4
:101C0000DFACDFABDFAAD789D768CF47CF46CF4657
:101C1000CF46C746C746C745C746C745C765C76518
:101C2000C745C745C745C725C725C725C725BF051C
:101C3000C725C725C745C746CF46CF46CF46CF465F
:101C4000CF46CF46CF46CF46CF66CF66CF66CF666C
:101C5000CF66CF66CF66CF66CF66CF66CF67D767D2
:101C6000CF67CF67D768D768D768D748D748D769CD
:101C7000D769D769D769D769D769D769D769D74885
:101C8000D769D769D768D748D768D768D768D7687A
:101C9000D748D748D749D749DF49DF6AE78BE7AB51
:101CA000E78BE78BE78BE78BE78CEFACEFACEFAC28
:101CB000EFACE78BDF6ADF6AE76AE769DF49DF28B5
:101CC000DF48DF48DF27D727D747D747D747D7266B
:101CD000D726D726D726D726D726D725D726D7251E
:101CE000EFCFEFCFEFCFEFCFE7CEE7CEE7CDE7CD2A
:101CF000DFACDFABDFAADF8AD768D768CF47CF6713
:101D0000CF46CF66CF46CF46CF46C745CF45CF65F6
:101D1000CF45C745C745C725C725C725BF04BF044D
:101D2000C725C725C725C745C745C745C745C745B3
:101D3000C746CF46CF46CF46CF46CF66CF66CF66A3
:101D4000CF67D767D766D766D766D766D787D7678F
:101D5000D768D769D769D769D769D769D769D76984
:101D6000D76AD76AD76AD76AD76ADF8ADF8AD76A1B
:101D7000D769D769D769D769D769D769D769D74983
:101D8000D749D769DF69DF69DF69DF6AE78BE7ABCE
:101D9000E78BE78BE78BE78BE78CE78CE78CE7AC8F
:101DA000E7ACE7ABE78BE76AE76ADF6ADF49DF4862
:101DB000DF48DF48D727D727D727D747D727CF26CA
:101DC000CF26CF26CF26CF26CF26D746D746D746F3
:101DD000EFCFEFCFEFCEEFCEE7CEE7CEE7CDE7AD5B
:101DE000DFACDFACDFABDFAAD789D768D768D768AD
:101DF000CF67CF67D767CF66CF66CF45CF45CF6573
:101E0000CF65C745C744C744C724C724BF24BF0400
:101E1000BF24C725C725C745C745C745C745C745CB
:101E2000CF45CF66CF66CF46CF46CF66CF67CF6769
:101E3000D767D787D787D787D787D787DF88DF88C0
:101E4000DF89DF8ADF8ADF8BDF8AD76AD76AD76AC2
:101E5000DF6ADF8BDF8BDF8BDF8BDF8BDF8BDF8A54
:101E6000DF8AD76AD76AD76AD76AD76AD769D76944
:101E7000D769D769DF69DF69DF69DF6AE78BE78BDD
:101E8000E76BE76BE76BE78BE78CE78CE78CE7ACFE
:101E9000E7ACE7ABE78BE78BE76ADF6ADF49DF494F
:101EA000DF28D728D728D727D747D747CF27CF2608
:101EB000CF26CF26CF26CF26D726D746D746D766DA
:101EC000EFCEE7CEE7CEE7CEE7CEE7CEE7CDE7CD64
:101ED000DFACE7ACDFCBDFAADF8AD789D768D7686A
:101EE000D767D787D787D787D766CF66CF65CF65C0
:101EF000CF65CF65C744C744C724C724BF24BF24C8
:101F0000BF24BF24C745C745C745C745C745C745C3
:101F1000CF45CF65CF65CF66CF66CF67D767D76729
:101F2000D768D788DFA8DFA9DFA9DFC9DFA9DFA9C4
:101F3000E7AAE7AAE7ABE7ABDF8BDF8BDF8BDF8BB3
:101F4000DF8BDF8BDF8BDF8BDF8BDF8CDFABDFAB00
:101F5000DFABDF8BDF8BDF6ADF8ADF8ADF8AD76A5E
:101F6000D769DF69DF6ADF8ADF6ADF6AE78AE78BC2
:101F7000E76BE76BE76BE78BE78CE78CE78CE7AC0D
:101F8000E7ACE7ACE7ACE78BE78BE76ADF69DF49F3
:101F9000DF48D748D748D748D747CF47CF47CF277D
:101FA000CF26CF26CF26D746D746D746D766D76780
:101FB000E7CEE7CEE7CEE7CEE7CDE7CDE7CDE7CD7D
:101FC000DFACE7ABDFCBDFABDFAAD789D788D78819
:101FD000D788D787D787D787D787D786CF66CF6564
:101FE000CF65CF65C744C744C724BF24BF23BF24E0
:101FF000C745C745C745C745C745C744C744C74484
:10200000CF65CF65CF66CF66CF66D767D767D7670F
:10201000D768DF89DFAADFAADFAAE7CBE7CBE7AB88
:10202000E7ABE7ABE7ABE7ABE7ACDFABDF8CDFAC55
:10203000DF8BDF8BDFACDF8CDF8CDFACDFACDFACCA
:10204000E7ACDFACDF8BDF8BDF8BDF8BDF8BDF6A17
:10205000D769DF69DF8ADF8ADF8ADF8AE78BE78B70
:10206000E76BE76BE76BE76BE78BE78CE78CE7AC3D
:10207000E7ACE7ACE7ACE78BE78BE78BDF6ADF49E0
:10208000DF49D748D768D768D748CF47CF47CF472A
:10209000CF47CF26CF26D747D767D746D746D7874C
:1020A000E7CDE7CDE7CDE7CDE7CDE7CDE7CDE7CC91
:1020B000E7CCE7ABDFABDFAADFAADFA9D789D788F8
:1020C000DFA8D787D787DFA7D7A7D786CF65CF4524
:1020D000CF65C744C744C744BF23BF23BF23BF2323
:1020E000C745BF24BF24C744C744C744C744C744E7
:1020F000CF65CF65CF65CF45CF66D787D767DFA8D8
:10210000D768DF8ADFABCF4ADFCCDFACDFABE7CC11
:10211000E7ABEFECE7ABE7ABE7ABDF8CDFACDF8C3B
:10212000E7CDDF6BDF8CE7CDE7ACD74BEFEED76BBE
:10213000DFACDF8CE7CDDF8BE7CCDF8BD76BD78ACB
:10214000DF8ADF8ADF6ADF8AE78BDF8BDF6BE78B73
:10215000E78BE78BE78BDF6BDF6BE76BE78CE7AC3D
:10216000E7ACE7ACE78CE7ACE7ABDF8BDF6ADF6AB5
:10217000D749D768D768D768D768D768D768CF47AF
:10218000D767D767D767D767D787D787D767D787FF
:10219000E7CDE7CDE7CDE7CDE7CCE7CCE7CCE7CCA3
:1021A000E7CCE7CBDFAADFAADFA9DFA9D788D788EA
:1021B000DFA8D787D787D7A7D7A7D786CF65CF651B
:1021C000C744C744C744C744BF23BF23BF23BF235B
:1021D000BF24BF24BF24C744C744C744C744C7451E
:1021E000CF45CF65CF66CF66CF67D787D788D788EB
:1021F000DF8ADFABE7CC9DC5D7ADDFEEDFADDFAC6F
:10220000E7CCDF8BEFECDF8BE7ACE7ACDF8CDFAC50
:10221000DF8CE7ACCF0ADF6BDF6CE7CDE7ADDFAC7F
:10222000DF8CDF8CDFACDF8CDF8CD76BCF4AD76ADB
:10223000D76ADF8ADF8ADF8ADF8ADF6ADF6AE78BB5
:10224000E78BE78BE78BE78BDF6BE78CE78CE7AC03
:10225000E7ACE78CE78CE7ACE78BDF8BDF6ADF6905
:10226000D769D769D769D788D788D788D768D76813
:10227000D768D767D767D787D787D767D767D7870D
:10228000E7CCE7CCE7CCE7CCE7CCE7CCE7CCE7CCB6
:10229000E7CBE7CBDFAADFAADFA9DF89DFA8DFA8CA
:1022A000DFA8D7A8D7A8D7A7D787D786CF65CF6508
:1022B000C744C744C744C724BF23BF23BF23BF2489
:1022C000BF04BF24C724C744C744C724C745CF653C
:1022D000CF45CF66CF66CF87CF67D767D788D788F8
:1022E000DFAAD76AE7ED9DE695A5BF0BDFEEDFAD70
:1022F000DFCDDFACE7CCE7CCDFABDF8BD76BDFAC80
:10230000E7CCB646B667E7EDDF8CDFACD76CD76CB1
:10231000D76CDFACDFACD76BDFACDFACDFACCF4A68
:10232000CF08D769DF8ADF8ADF8ADF8ADF8ADF8A20
:10233000E78BE7ABE7ACE78BDF8BE78CE7ACE7AC91
:10234000E7ACE7ACE78CE7ACDF8BDF8BDF6ADF69FC
:10235000DF69D789DF89DF89D788D788D788D78889
:10236000D788D768D788D788D788D787D767D787B8
:10237000E7ABE7CBE7CBE7CCE7CCE7CCE7CCE7CBE9
:10238000E7CBDFAADFAADFA9DF89DF88DF88DFA844
:10239000DFA8D7A8D7A8D7A7D787CF66CF65CF653F
:1023A000C744C744C744C724BF23BF23BF23BF2498
:1023B000BF24BF24C724C745C745C745CF45CF66FF
:1023C000CF66CF46CF46CF67CF67CF47D788D7896D
:1023D000DFAAD7ABBEE98D849E289E07AEAADFEFA9
:1023E000D7ADDFCDDFCCDFABDF8BE7CCE7EDDFAC0C
:1023F000B6679542E7CDD76BDF6BD76BDF8CDF8C91
:10240000D76CD76CDFACD78CDFACBEA8AE4695627C
:10241000CF08D769DF8AD76ADF8ADF8ADF8ADF8A57
:10242000DF8BE7ABE7ABE78BE78CE7ACE7ACE7AC80
:10243000E7ADE7ADE7ACE7ACE7ABDF8BDF6ADF69C1
:10244000DF89DF89DF89DF89DFA9DFA8D788D7881F
:10245000D788D788D788DF88DF88D788D788D78874
:10246000E7CBE7CBE7CBE7CBE7CBE7CBE7CBDFAB04
:10247000DFAADFAADFA9DFA9DF88DF88D788D788AE
:10248000D788D7A7D7A7D787D787CF66CF65C745C0
:10249000C744C744C744BF23BF24BF24BF24BF24AD
:1024A000C744C724C744C745CF65CF66CF46CF666C
:1024B000D787CF67C746CF67CF68CF47D788D7A919
:1024C000CF69E7EC9E259E268DC6A689AECAAECA08
:1024D000D7ADD7CDE7EDDF8CDF8BE7CCDFCC8D013F
:1024E000A5C4E7ECD76ADF8BD76BD76BD74BD76B1D
:1024F000DFACD76BCF2ADFCDB68895A4AE26D78BBD
:10250000D74ADF8ADF8AD76ADF8ADF8ADF8ADF6A13
:10251000DF8ADFABE7ABE7ABE7ABDFACE7ACE7AC61
:10252000E7ADE7ADE7ADE7ACDFACDF8BDF8AD769BE
:10253000D789D789DF89DF89DF88DF88DF88D78877
:10254000D788D788D788DFA8DFA9DF88DF88DFA80A
:10255000E7CBE7CBE7CBE7CBE7CBDFABDFABDFAA64
:10256000DFAADFAADFA9DFA9DF89D788D788D787C5
:10257000D787D787D787D787CF66CF66CF65C74539
:10258000C744C744C744BF23BF24BF24BF44BF447C
:10259000CF65C744C745CF45CF66CF66CF46CF4648
:1025A000CF46D788CF47CF68D788CF47D788D7C9F6
:1025B000D7AACF8A96049625A6A885E69E89A6A9BD
:1025C000AEAAC74CD7ADDFACE7EDBEA78D00CF08F4
:1025D000E7CBD76ADF8BDFABD74AD76BDF8CCF4B2C
:1025E000CF4BD78CDFACA5E59DC5A605D78BCF6AB1
:1025F000D76ADF8AD78AD769DF8ADF8ADF8ADF6A0C
:10260000DF8ADF8BE7ABDFABDFABDFACE7ACE7ACA0
:10261000E7ADE7CDE7ADE7ACDFACDFABDF8AD7698D
:10262000D769D769D789D788D788D788D788D788EF
:10263000D788D788D788DFA9DFA9DFA9DFA9DFA9D5
:10264000DFCBDFCBE7CBE7CBDFABDFABDFAADFAAAC
:10265000DF8ADFAADFA9DFA9DF89D788D768D76734
:10266000D767D787D787CF86CF66CF66CF65C74571
:10267000C764C744C744BF44BF24BF44C744C7441A
:10268000CF65C744C745CF65CF66CF66CF67CF67F5
:10269000B684CF68CF68CF68D788CF67D788D7A9E7
:1026A000D7CAC74895E38E049666968796889E6833
:1026B000A6AABF2CDFCEDFCD8D429562DFCADFAA8E
:1026C000D769DFAAD76AD749D76ADF8BD76BDFAC68
:1026D000D78CBEE9A626A626AE46CF8BD7ABCF6A4F
:1026E000CF6AD78AD769D769D769D769D76ADF8AA6
:1026F000DF8ADF8ADFABDFABDFABDFACDFACDFACC9
:10270000E7ADE7CDE7CDE7ACDFACDFABDF8AD7697C
:10271000D769D769DF68DF88DF88DF88DF88DF88EF
:10272000D788D788DF88DFA9DFA9DFA9DFA9DFA9DC
:10273000DFCBDFCBDFCBDFCBDFCBDFABDFAADFAAAB
:10274000DF89DF89DFA9DFA9DFA8D788D767D76747
:10275000D767D787D787CF87CF66CF66CF65C7655F
:10276000C745C745C744BF24BF24BF24C744C74586
:10277000C745C745CF65CF66CF86CF87D788D7A94E
:102780009DC2CF48CF69CF48CF89CF68D7A8D78817
:10279000D7AAAE86A6859E8596659EC79EA8968773
:1027A000A6A9A669C70B6C40B667DFCBCF69D789EE
:1027B000D789D769D769DF8AD78AD74ACF4AB6A7D8
:1027C000A605A605C729CF4AD78BCF6AD78BCF6A74
:1027D000CF69D769D769D769D769D749D749DF8A18
:1027E000DF8ADF8ADFABDF8BDFABDFABDFACE7CCD1
:1027F000E7CCE7CDE7CCDFACDFABDFABDF8AD76977
:10280000D769D789D789D788D788DF88DF88DF88D5
:10281000D788D789DF88DFA9DFA9DFA9DFA9DFA9EA
:10282000DFCADFCADFCADFCADFCADFAADFAADFA9C1
:10283000DFA9D789D789D788D788D788D788D78875
:10284000D787D788D787D787D787CF86CF66CF65F3
:10285000CF66C745BF24C745BF44BF24BF24C74573
:10286000BF45C745CF65D786D786CF66CF87CF8987
:10287000B6A68D62CF8BCF8AD78AD789DF88DF88CB
:10288000DFCAA644A6659E859EA5A72796A59EA6F7
:102890009E4685226C40C6C8E7ECD749DFCAD78977
:1028A000D789CF49D78ACF69D78ACF6AA604AE45E0
:1028B000CF49D76AD76ACF49C729CF69CF69CF49EE
:1028C000CF48CF69CF69CF69D769D769D769D76949
:1028D000D769D769DF8ADF8ADFABDFABE7ABDFAB76
:1028E000DFACDFCCDFACDFABDFABDFAADF8AD769E1
:1028F000D768D768D768D788D788D788D788DFA818
:10290000DFA9DFA9DFA9DFA9DFC9DFC9DFC9DFA927
:10291000DFAADFAADFAADFAAD7AAD7A9D789D789D2
:10292000D7A9D789D788D788D788D788D788D7878E
:10293000D767D787D787D787D767CF66CF66C7458B
:10294000C745CF86C765BF24C765C765BF45BF45B7
:10295000BF04C765CF86CF65CF45CF87CFA8CF89C6
:10296000B7088DC48564C78CD7ACCF49DFC9D78879
:10297000D7AAA645AEA6A6C696849EC59EE69E8507
:1029800075006440BEE8DFABCF49DFAACF48CF690E
:10299000CF89C748CF49D7AACF69A624A5E4CF29B4
:1029A000CF29CF49CF49C728C728CF48CF49CF48DB
:1029B000CF48CF68CF68CF68CF68D768D769D76965
:1029C000D769D789DF8ADF8ADFAADFABE7CBDFAB46
:1029D000DFABDFCBDFCBDFABDFAADFAAD7A9D7899D
:1029E000D768D788D788D788D788D7A8D7A8DFA8A7
:1029F000DFA9DFA9DFA9DFA9DFA9DFA9DFA9DFA997
:102A0000D7AAD7AAD7AAD7AAD7A9D7A9D789D78902
:102A1000D789D788D788D788D788D788D787D787BF
:102A2000CF67D767D787CF67CF66CF66CF66C765D3
:102A3000CF86C745C745C765BF45BF25BF45BF450D
:102A4000C765C745C745CF66D786CF87CF87C788B5
:102A5000BF297D438DE77D44C76CD7EDC768CF891B
:102A6000D7CBA6668DE3A6A69EA69EC6AF2864C059
:102A70006CE095C2CF69D7AACF48DFCACF48D7CA82
:102A8000D7AAC748A6248D8185208D40CF28C72886
:102A9000C708C728C708C708C728C728C748C728FE
:102AA000C748C748CF48CF48CF48CF48D768D7692D
:102AB000D769D789DF8ADF8ADFAADFABDFABDFAB7D
:102AC000DFABDFABDFABDFAADFAADFAADFA9D789E5
:102AD000D788D788D788D788D788DFA8DFA8DFA886
:102AE000DFA9DFA9DFA9DFA9DFA9DFA8DFA8DFA8A9
:102AF000D7A9D7A9D7A9D7A9D7A9D788D789D78838
:102B0000D788D788CF68D767CF67CF67CF67CF67BA
:102B1000CF67CF67CF67CF67CF67CF66C766C76618
:102B2000C745C766C766BF45BF45C766C766BF45D9
:102B3000C766C745C726CF66CF87CF67C787CF8908
:102B4000BF6A6CE28DE78E097525BF6CCFECCFCBE9
:102B5000CFCBAEA78DE49E659E86B74964C06CE07E
:102B60006D008DA1BEE6D7A9D7AAC708D7AACF699D
:102B70008D817CE07CE07CC08520CF49CF49BEE7D9
:102B8000C708C707BEE7BF07C707C727C727C728A4
:102B9000C748C748CF48CF48CF48CF48D768D7693C
:102BA000D769D789DF8ADF8ADF8ADFABDFABDFABAC
:102BB000DFABDFABDFAADFAADFAADFAADFA9D789F5
:102BC000D788D788D788D788DFA9DFA8DFA8DFA86C
:102BD000DFC9DFC9DFA9DFA8DFA8DFA8DFA8DFA87A
:102BE000D788D788D788D788CF88CF88CF68CF684D
:102BF000CF68CF67CF67CF67CF47CF47CF47CF46A5
:102C0000CF46CF67CF67CF66CF66CF67CF66C76641
:102C1000C746C766BF45C766C786BF45B705BF4637
:102C2000BF46C746C747C747CF67CFA8CF88BF684B
:102C3000C7AB8E0685C886098E097D859EA7C7CB42
:102C4000C7CBAF0885829E86A6A764C06D0164C00D
:102C500075009622D7E9CF88CF69D7CB9DC3748002
:102C60007CE07CE07D00A603D789CF68BEE7C7483B
:102C7000C707BEE7BEE7BEE7BF07BF07BF07BF275F
:102C8000C727C748C748CF48CF48CF48CF68D7687D
:102C9000D769D789D789DF8ADF8ADFAADFAADF8AE7
:102CA000DFAADF8ADF8ADF8ADFAADFA9D789D7898F
:102CB000D788D788D788DFA8DFA8DFA8DFA8DFA854
:102CC000DFC8DFA8DFA8D7A8D788D787D788D78756
:102CD000D788CF88CF88CF87CF68CF67CF67CF67B8
:102CE000CF67CF47C747C746C746C746C746C74649
:102CF000C746CF46C767C767CF67CF66C767C76690
:102D0000CFA8BF05C746C787BF25BF46C767B7253A
:102D1000BF67BF67B707A6659E03A644BF27CFCA94
:102D2000C7ABB74B9E6A8E29966A8E0786058E04BE
:102D3000A6C7B7696D009E658DC4648064805C60C1
:102D40008581A6C4C7A9D7EBAE877480748074A0B0
:102D50006C807CE0B6C5C748C748BEE6BEE7B6C6CD
:102D6000BEE7BEE6BEC6BEE6BEE6BF07BF07BF07FC
:102D7000BF27C727C748C748CF48CF48CF48CF68E5
:102D8000D769D769D789D789DF8ADF8ADF8AD78A67
:102D9000DF8AD789D789D789D789D789D788D7882C
:102DA000D788D788DFA8DFA8DFA8DFA8DFA8DFA83B
:102DB000DFA8D7A8D787D787D787D787D767D787F9
:102DC000CF87CF87CF87CF87CF67CF67CF67CF67D3
:102DD000C747C746C746C726C746C746C726C726EA
:102DE000C726C746C747C747C747CF67C767C7464E
:102DF000C746C746CF87BF46B705C788C78796422D
:102E00007D606CE0648064A06CC06CA064806480B1
:102E10006CE07D836D0275247D659648A6C985C4E6
:102E20008E2496657DA196446CE074E06CA05C40B5
:102E30009603C7A9C7895C206C606C4064206C60F5
:102E40008540D7A9BF06BF27B6C5BF07B6E6BF07EF
:102E5000B6C6B6C6B6C6B6E6B6E6BEE6BF06BF0797
:102E6000BF07C727C727C748C748CF48CF48CF683D
:102E7000D768D769D789D789D789D789D789D769B3
:102E8000DF89D789D768D788D788D788D768D78880
:102E9000D788D788D7A8DFA8DFA8DFA8D7A8D78783
:102EA000D787D787D787D787D767CF66CF67CF66CC
:102EB000CF87CF87C766C766C766C746C747C747B6
:102EC000C746C746C726BF26C726BF26BF26BF267A
:102ED000C726C746C746C747C747C767C767C74765
:102EE000C746CF88BF06BF46D7C9A68474E06CE04A
:102EF00064E06D20752075006CC06CA074C06CE03F
:102F00006CC06CE06CC064C064805C6075239E67BC
:102F10008E05964575608E027D617D416CE06CC0CA
:102F2000B7078E034BC064805C206C6064008D83A7
:102F3000CF89BF06BF06B6E5BF06B6A5BEE6B6A5F5
:102F4000B6A5B6C6B6C6B6C6B6C5B6E6BF06BF0611
:102F5000BF27BF27C727C727C727C748CF48CF687E
:102F6000CF68D769D789D789D789D789D789D769CA
:102F7000D789D788D768D768D788D768D768D788D8
:102F8000D788D787D788D7A8D7A8D787D787D7870D
:102F9000D787D787D787D786D786CF66CF66CF66BE
:102FA000C766C766C766C766C746BF45BF25BF2594
:102FB000BF26BF26BF26BF26BF26BF26BF05BF052B
:102FC000C746BF26C726C767C726C747CF88C74794
:102FD000C747C747C747C767A6647D00750064A099
:102FE00064C06CE06CE06CC06CC074E07D007D007F
:102FF000750074E075006CE074E064A05C4064816E
:103000008E268E048DE375407D61858174E07D415F
:103010009E6543C05C605C205C205BE08502D7ABB2
:10302000C727BF06BEE5B6C5B6A5AEA5AEA4AEA47D
:10303000B6C5AEA5AEC5AEC5B6C5B6E6B706BF2722
:10304000BF27BF27C727C727C727C748CF48CF48AD
:10305000CF68CF68CF68CF68CF69D788D769D7895D
:10306000D788D788D768D768D788D768CF67CF671A
:10307000D767D767D787D787D787D787D787D787A0
:10308000CF66CF86CF86CF65CF66CF66CF66CF655A
:10309000C745C745C746BF45BF45BF25BF25BF2557
:1030A000BF26BF26BF26BF26BF05B705BF05BF0584
:1030B000B6E5BF06B6E5C747C747C767BF26BF0621
:1030C000CF68C727C767AE8485407D006CC08DA1DF
:1030D0009E64AEC5B6E6B706B6E7BEE7B6C7B6A706
:1030E000AE85AEA596017D6064806CA06CC15C600D
:1030F0005C408E0685A37D6175207D4075008DE363
:1031000075215C605C4064605BE06440D78AC727DF
:10311000C706BF05BEE5B6C5AEA4AE84AE84AE8418
:10312000AEA5AEA5AEA5AEC5B6C5B6E6B706BF2779
:10313000BF27BF27C727C747C727C727C748CF48C5
:10314000CF68CF68CF68CF68CF68CF68CF68D7889F
:10315000D788D788D788D788D768D768CF67CF6709
:10316000CF67D767D787D787D787D787D787CF86C0
:10317000CF86CF86CF66CF65CF65CF66CF66CF656A
:10318000BF45BF45BF45BF25BF25B705B705B70537
:10319000B705B705B705B705B705B705B6E5B6E591
:1031A000B705B6E5BF26BF26C727BF26C747C7480E
:1031B000C727C727C7689E23AEA5C747BF47C747CE
:1031C000BF06BF05B6E5B6C4B6C5BEE6BF07BF07B6
:1031D000B6C6CF88C786BF66C7A87520540064826C
:1031E0006461542085A46CE07D61752075009604AF
:1031F00064A05C606CA054005C00C728CF68C74620
:10320000C705BF05B6E4B6A4AEA4AE84AE84A6637B
:10321000A664A684A684AEA5AEC5AEC5B6E5B706BF
:10322000BF27BF27BF47C727C727C727C748C748E4
:10323000CF68CF68CF68CF68CF68CF68CF68CF68D6
:10324000CF68CF68D788CF88CF67CF67CF67CF6782
:10325000CF67CF67CF87CF87CF87CF86CF86CF8601
:10326000CF86CF86CF65CF65CF65CF65CF65CF657C
:10327000BF45BF25BF25B725B705B704B6E4B6E4FB
:10328000B6E5B6E5B6E5B6E5B6E5B6E5AEE4AEC597
:10329000AEC5B705AEC5B706B6E6BF27BEE6C7489A
:1032A000BF06CF68A644C768C747B6E6BF47B6C5DE
:1032B000BEE5BEE5B6E4B6C3B6C4B6E5B6E6B6C688
:1032C000BF06B6C4B724B704B725CFCA7D6353E0A1
:1032D00054006C8254006CC1752175615C808DE472
:1032E00064806CC15C2053C0A644D7A8CF87C72593
:1032F000C705BF05B6C4B6A4AE84AE84A663A663F4
:10330000A663A663A684AEA4AEA4AEA5AEC5B6E67B
:10331000BF06BF27BF27BF47C727C727C748C7481C
:10332000CF48CF48CF48CF68CF68CF67CF67CF6748
:10333000CF67CF68CF68CF67CF67CF67CF67CF67DB
:10334000CF67CF67CF87CF86CF86CF86CF86CF8612
:10335000CF86CF65C765C745C745C745C765C7653C
:10336000BF25B725B705B705B705B6E4AEE4AEE4AB
:10337000AEE5AEE5AEE5AEE5AEE5AEC4AEC4AEC418
:10338000A6A4AEE5AEC5AEA5C747BF27B6A5BF0785
:10339000BF07A643BF27BF27BF47B6E6AEE5B726A0
:1033A000B6A4B6C4B6C3B6E4B6E4B6E5B6C5AEA533
:1033B000B6E5AEA4BF04C765B725B706CFCB8584F5
:1033C00053A053C0646254005CA0650064C07D6279
:1033D0006480644064207D00D7A9CF66D786CF463D
:1033E000C725BF05BEE4B6C4B6A4AE84AE83A6634B
:1033F000A663A664A684AEA4AEC5AEC5AEC5B6E649
:10340000B706BF26BF27BF47C727C727C748C74834
:10341000C748C748C748C747C747C767C767C767D9
:10342000CF67CF67CF47CF67CF67CF67CF67CF670C
:10343000CF67CF67CF87CF66CF86CF86CF86CF6562
:10344000CF65C765C744C744C744C744C744C744DA
:10345000B725B705B704B6E4B6E4B6E4AEE4AEC447
:10346000AEE5AEE5AEE5AEC4AEC4AEC4A6A4A6A4B9
:10347000A6C4A6A4B726AEE5A6A5B6E6B706B706C7
:10348000B6E6B6E6B6E6BF27A6A5B726B706AEA44B
:10349000B6E6AEC5AEC4AEA3A6C3AEC3AEC4AEC49C
:1034A000AEC4B6E5B6E4B6C3AEA3C767BF27CF6A5E
:1034B0007CE2538053C04BC05C805CA05CA085A3C1
:1034C00064606C815C00C708D7A8D787CF45CF67F9
:1034D000CF26C725BF05BEE4B6C5B6C4AE84AE834D
:1034E000A663A663A684AEA4AEA5AEC5AEC5B6E57A
:1034F000B706B706BF27BF27C727C727C727C748AD
:10350000C748C748C747C747C747C747C747C74749
:10351000CF67CF47C747CF47CF67CF67CF67C7468C
:10352000CF46CF66CF87CF66CF86CF86CF86CF6593
:10353000C745C745BF24BF24BF24BF24BF24BF2421
:10354000B725B705AEE4AEE4AEE4AEE4AEC4AEC4B7
:10355000A6C4A6C4A6C4A6A4A6A4A6A4A6A4A6A4BB
:103560009EA49E84A6A4A6C58DC1AEC5AEA5B6E692
:10357000B706AEC5B726B706AEE5A684A6C4AEC5E7
:10358000A6A6A6C5A6C5A6E4A6E4A6C3A6C3A6A3EA
:10359000AEC4AE83BEE4B6E4C725BF05C725CF6879
:1035A000CF6A5BC04B8053E043E05CE04C607DA39E
:1035B00064606C818522D78ADFA8DFA7CF26CF671A
:1035C000CF46C746C725BF05BF05B6E5B6A4AEA41E
:1035D000A684A663A663A684AEA4AEA5AEC5AEC5FA
:1035E000B6E6B706BF27BF47BF47C747C748C74864
:1035F000C748C748C747C747C747C747C747C74759
:10360000CF47CF47CF47CF47CF47CF47CF47C74613
:10361000C746CF66CF87CF66CF66CF86CF86CF65CA
:10362000C744BF44BF24BF24BF24BF24BF24BF243A
:10363000B725B705AEE4AEE4AEE4AEC4AEC4A6A40E
:10364000A6A4A6A4A6A4A6A4A6A4A684A684A6848A
:103650009E84A6A4A6C57540B727A6A5A684AEC518
:10366000A685AEE6AEC5A6A5A6A4A6C5A6C5A6A572
:103670009E859E85A6A5A6C4A6E4A6C4A6C3A6C488
:10368000A6A3AEC4B6A3BEE4BEC4C704CF65CF46EE
:10369000D769BEC84B604BA04C004C404C206D021B
:1036A0005C606420AE47DFCBD768D787D788D76800
:1036B000CF67CF46C746C726C726BF05B6C4AEA448
:1036C000AEA4A684A664A684AEA4AEA5AEC5AEC5BF
:1036D000AEE6B706B727BF27BF47BF47C748C748AB
:1036E000C748C748C747C747C747C747C747C74768
:1036F000C747C747CF47C747C747C747C747C76633
:10370000C746CF66CF66CF66CF65CF86CF85C76504
:10371000C744BF44BF24BF44BF44BF24BF24BF2409
:10372000AEE5AEE5AEE4AEC4AEC4A6A4A6A4A6A41F
:10373000A6A4A6A4A6A4A684A6849E849E849E6411
:103740009E6496028E029E64A6A5A685A685A6C541
:10375000A6A5A6A5A685A685A685A685A685A6A5B1
:10376000A685A685A685A685A6A4A6A4A683A683C7
:10377000AEA3AEA3AEC3B6E4BF04C725C745CF67AB
:10378000D788DFEB6C404BA05C41542043C05420F1
:10379000646074A0CF2AE7CBDF69DF88DFA9CF6838
:1037A000CF88CF67CF47CF46C746BF25B6E4B6E43C
:1037B000AEC4A684A663A684A6A4AEC5A6A5A6A5E7
:1037C000AEC5AEE5B6E6B706B707BF27C748C768B8
:1037D000C748C748C748C747C747C747C747C74776
:1037E000C747C747C747C747C747C746C746C7466C
:1037F000C746C746C766C765C765C765C765C765A6
:10380000C745BF44BF24BF24BF44BF44BF24BF2417
:10381000AEC5AEC4AEC4AEC4A6A4A6A4A6A4A684D7
:10382000A684A684A6849E849E849E649E649E64D0
:103830009E44962396239E64A6859E849E84A68598
:103840009E849E849E649E649E649E649E84A685DF
:10385000A6859E649E64A685A685A684A664A68386
:10386000AEA3AEA3AEC3B6E4BF04C725CF46D767A9
:10387000D7A8E7EBBEE943206CA364A343805C6256
:103880007D236440E7EDE7ABEFEBDF89D768DFC965
:10389000D7A8D788CF67CF67CF46C745BF05B6E45F
:1038A000B6C4AEA4A683A684A684A6A5A6A5A6A5EE
:1038B000A6C5AEE5B706B706B707BF27C728C748EE
:1038C000C748C748C748C747C727C726C726C72608
:1038D000C746C727C746C726C726C726C746C746FF
:1038E000C745C745C745C765C745C745C745C74558
:1038F000BF45BF24BF24BF24BF44BF44BF24BF244F
:10390000A6C4A6A4A6A4A6A4A684A6849E849E64F7
:103910009E649E649E649E649E649E649E649E6497
:1039200096239E449E649E449E449E649E649E6430
:103930009E449E449E4496449E449E449E649E643F
:103940009E649E449E449E649E64A664A664A68370
:10395000AEA3AEA3B6C4BEE4BF05C726CF66D78765
:10396000DFA9DFCBDFAD5BA053C064425C425C21CA
:1039700064407CE1E7CDEFEDE7ABEFEBE7EBD78918
:10398000DFA9D7A8D788CF67CF66C746BF25BF05B1
:10399000B6C4AEC4A6A4A684A684A684A684A6A5FE
:1039A000A6A5AEC5AEE6B707B707BF27BF28C7486D
:1039B000C748C727C727C747C727C726BF26BF2669
:1039C000C726BF26BF26BF26BF26BF26BF25BF25C9
:1039D000C745C745C765C765C745C745C745C74547
:1039E000BF24BF24BF24BF24BF24BF24BF24BF24BF
:1039F000A6A4A6A4A684A684A6849E649E649E63B0
:103A00009E439E44964496449644964396449644D8
:103A100096239E449E649E449E449E649E649E445F
:103A20009623962396239623962396249E449E447B
:103A30009623962396239E439E649E64A664A68442
:103A4000AEA4AEA3B6C4BF05C725CF46D787DFA8AF
:103A5000DFCAE7ECE7EE6C21538064424BC064623E
:103A600085449583DF6CEFEEEFCCE78BE7CBE7EB9C
:103A7000DFAADFA9D789D788CF67CF46C726BF057A
:103A8000B6E5AEC4A684A684A6849E84A6A4A6A5F4
:103A9000A6A5A6C5AEE6B706B707BF07BF27BF28CE
:103AA000C728C727C727C727C727BF26BF26BF26C0
:103AB000BF26BF26BF26BF26BF05BF05BF25BF2522
:103AC000C745C745C745C765C745C745C745C74576
:103AD000C745C745C745BF45BF24BF24BF24BF2432
:103AE000A684A684A6849E849E649E449E43964398
:103AF000964396439643964396249643962496433C
:103B0000964396439E449E449E449E449E449E44B7
:103B100096239623962396239623962396249644BB
:103B200096239623962396239E449E64A684AEA451
:103B3000AEA4B6C4BEE4BF05C746CF67D7A8DFA909
:103B4000E7AAE78BEFEF8CE54B404B6043404B809F
:103B50007D039DC5A585FFEFF7CDEFACEFEDE7AB9E
:103B6000E7CBDFCADFA9D788D788CF67C746BF268C
:103B7000B705AEC5A684A684A684A6A4A6A4A6C599
:103B8000A6A5A6C5AEC6AEE6B6E7B707BF07BF2770
:103B9000BF27BF27BF27BF27BF27BF26BF26BF26F8
:103BA000BF26BF26BF05BF05BF05BF05BF25BF2573
:103BB000BF25BF25BF45BF45BF45BF45BF45C7451D
:103BC000C745C745C745C745BF24BF24BF24BF2439
:103BD0009E649E649E649E649E44962496239623CF
:103BE000960396039603960396239623962396238D
:103BF0009E44962396239E449E649E4496439E44F0
:103C000096449624962396239623962396249623C9
:103C100096239623962396239E439E63A684AEA462
:103C2000B6C4B6E5BF05C726CF46D788DFA8E7A943
:103C3000EFCBE7ADF7F1BE6B4300432053A0434009
:103C40006420B648FFF0FFF0F7AEEF8DEFADE7CCA4
:103C5000E7CCE7ABDFAADF89D788CF67C747C7269E
:103C6000BF06AEC5A684A684A684A6A4A6C5A6A59E
:103C7000A6A5A6A5AEC6AEC6AEE6B6E7B707BF0711
:103C8000BF07BF07BF27BF27BF26BF26BF06BF0688
:103C9000BF05BF05BF05BF05B705BF05BF05BF050C
:103CA000BF05BF05BF25BF25BF25BF25BF45C745EC
:103CB000BF45BF45BF45BF45BF25BF24BF24BF2467
:103CC0009624964496249624962496038E038E0377
:103CD0008E038E038E038E038E038E03960396232C
:103CE0009643962396239E449E449E44964496442F
:103CF0009E44962496249603960396039603960371
:103D000096239623962396439E639E64A684AEA430
:103D1000B6E5BF05C726C746CF67D788DFC9E7CA5C
:103D2000E7ABEFCEF7F1CEEE3AA0538032E053A0EE
:103D30005C00BEAAEFCFF7AFF7AFF7CFEFCEEFEE55
:103D4000E7ACE7ABDFAADF89D788CF68C727C726EC
:103D5000BF06B6C5A684A684A684A6A4A6A4A6A5C6
:103D6000A6A5A6A6A6C6AEC6AEC6AEE7B707B70757
:103D7000B707B707B706B706BF06B706B705B70553
:103D8000B705B705B705B6E5B6E5B6E5B6E5B6E4F9
:103D9000B705BF05BF05BF25BF25BF25BF25BF454B
:103DA000BF45BF25BF25BF24BF25BF24BF24BF04F7
:103DB0008E038E048E048E048E038E038DE38DE3BA
:103DC0008DE38DE38DE38DE38DE38E038E03960308
:103DD00096239623964396439E449E449E4496443F
:103DE0009E4496249624960396038DE38DE38DE3FB
:103DF00096239623964396439E64A684A6A4AEC4B7
:103E0000B6E5BF06C726CF46D767DFA8E7A9E7CA4A
:103E1000EFECF7EFE790F7F342E043204B804B6085
:103E20005BE0C6EBFFF1F7B0FFD0F7CFEFAEE7CD29
:103E3000EFCCE7ACE7ABDFAADF89D768CF47C7266F
:103E4000BF06B6E5A6A4A684A684A6849EA4A6A5BD
:103E5000A6A5A6A5A6C6AEC6AEC6AEE6AEE6B6E6B4
:103E6000B6E6B6E6B706B706B706B6E6B6E5B6E511
:103E7000B6E5B6E5B6E5B6E5B6E5B6E4B6C4B6C4AD
:103E8000B6E4B6E4B6E4B704B704BF05BF25BF2562
:103E9000BF45BF25BF25BF04BF25BF24BF04B6E370
:103EA00085C385E38DE48DE485E385C385C385C340
:103EB00085C385C285C285C38DE38DE38E039623BA
:103EC000960396239E449E449E449E449E4496445C
:103ED0009624962396038DE38DE38DE38DE38DE3A6
:103EE0009623964396439E649E64A684A6A4AEA49D
:103EF000B6E5BF05C726CF46D767DF88E7A9E7CB7A
:103F0000EFEDEFCFF7F1EFD242E053804B6053A0DB
:103F100053C0CF2CF7F2FFD1F7B1F7D0EFCFEFCEF0
:103F2000EFCDE7ACE7ABDF8ADF89D788CF47BF06A5
:103F3000B6E6B6E5A6A49E649E649E849EA49E8476
:103F4000A6A5A6A5A6A5A6A5AEC6AEC6AEC6AEE655
:103F5000AEE6AEE6AEE6AEE6AEE5AEE5AEC5AEC505
:103F6000AEC4AEC4AEC4AEC4AEC4AEC4AEC4AEC4C1
:103F7000AEA4AEC4B6E4B6E4B6E4B705BF25BF252B
:103F8000BF05B704BF05BF04BF04B704B6E3B6E37B
:103F90007D8385A385C385C385A385A385A385A3C9
:103FA00085A385A285C38DE38DE38DE38DE38E0329
:103FB0008E0396039623962396249644962496235E
:103FC0009623962396038DE38DE38DE38DE38E0395
:103FD0009623964396439E649E64A684A6A4AEC48C
:103FE000B6E5BF05C726CF67D788DFA9E7CAE7CB05
:103FF000E7ACEFEFFFF3F7F45B8153604B8053C006
:1040000053C0CF2CF7F2F7D2F7D1F7D0EFCFEFCEE6
:10401000EFCDEFCCE7ABDF8ADF89D768C747BF06B4
:10402000B6E5AEC5A6849E649E649E849EA49E84CE
:10403000A6A5A6A5A6A5A6C5AEC6AEC6AEC6AEC664
:10404000AEC5AEC5AEC5AEC5AEA5A6A5A6A4A6A472
:10405000AEA4AEA4AEA4AEA4AEA4AEA4AEA4AEA4D0
:10406000AEA3AEA4AEC4AEC4B6E4B6E4B705BF25F5
:10407000BF05BF05B705B704B704B6E4B6C3B6E3DA
:1040800075627D837D837DA37DA37DA37D837DA3D9
:104090007DA285A285C38DE38DE38DE38DE38DE362
:1040A0008DE39603960396239623962496249623CF
:1040B000962396038E038DE38DE28DE38E039603A4
:1040C0009623962396439E649E64A684A6A4AEC4BB
:1040D000B6E4BF05C746CF67D788DFA9E7CAE7CBF5
:1040E000EFEDEFCEEFB1EFD36BE34B604BA04BA006
:1040F00053A0CF2DF7F3F7D2FFD2F7D1EFCFEFEEEA
:10410000EFCDEFCCE7ABDFAAD789CF68C727BF06D3
:10411000AEC5AEA4A6649E649E649E84A684A68456
:10412000A685A6A5A6A5A6C5AEC5AEC6AEC6AEC694
:10413000A6A5A6A5A6A5A6A5A6A5A684A684A6848A
:104140009E639E639E63A663A663A683A683A683DF
:10415000A683A683AEA4AEC4AEC4B6E4B6E5B705E6
:10416000BF05B705B6E5B6E4B6E4B6E4B6C3B6E453
:10417000756375637D837D837D837D837D837D838F
:104180007DA385A385C38DE38DC38DC385C385C200
:104190008DE38DE396039603960396239623962349
:1041A000960396038E038DE38DE38E0396039603A9
:1041B0009623962396439E639E63A684AEA4AEC4C4
:1041C000B6E5BF05C746CF67D788DFA9E7CAE7CB03
:1041D000EFCCF7EFF7F1F7F3746542E053A05C0022
:1041E00053A0CF0CF7F3F7B3FFF3F7D1EFCFEFEE18
:1041F000EFCCE7CCE7CBDF89D768CF47C726BF0630
:10420000AEC5A6A49E649E439E649E649E849E84C6
:10421000A684A6A5A6A5A6C5A6C5AEC5A6C5A6C5BF
:10422000A6C5A6A5A6A5A6A5A684A684A6849E64C2
:104230009E439E439E439E439E439E63A663A66306
:10424000A663A683AEA4AEA4AEC4B6E4B6E5B70535
:10425000B705B6E5B6E5B6E5B6E4B6E4B6E4B6E469
:10426000756375637D837D837D837D837D837DA37E
:1042700085A385C385C385C385C285C285A285A262
:104280008DC28DC28DE38DE38DE396039603960375
:104290008E038DE38DE38DE38DE28E02960396030C
:1042A0009623962396239E439E439E63A683AEC485
:1042B000B6E4BF25C746CF67D767DFA8E7CAE7CB15
:1042C000EFECEFCEEF90F7F395284B4053A04BA0C7
:1042D00053A0C6CCFFF3F7B3FFF3F7D1EFCFEFEE68
:1042E000E7CCE7CBE7AAD789D768CF47BF26B70681
:1042F000AEC4A6849E639E439E649E649E84A684F0
:10430000A684A6A4A6A5A6A5A6C5A6C5A6C5A6A517
:10431000A6A5A6A4A6849E849E649E649E649E43D5
:104320009E439E439E439E439E439E439E439E4385
:10433000A663A683AEA4AEA4AEC4AEE5B705B7052A
:10434000B6E5B6E5B6E5B6E5B6E5B6E4B6E4B6E498
:10435000756375637D637D637D637D837D837DA3ED
:1043600085A385C385C385C385A285A285A285A2B1
:104370008DC28DC38DC38DC38DE38DE38DE38DE33E
:104380008DE28DE28DE28DE28DE28E029603960340
:1043900096239623962396239E239E42A663AEA33E
:1043A000B6E4BF05C746CF46D767DF88E7A9E7CAA7
:1043B000E78BEFAEF7D1F7F49D6942E04B805BC02D
:1043C0005380BE8BFFF3FFB3FFF3F7D1EFCFEFEED8
:1043D000E7CCE7CBDFAAD769CF47C727BF06B6E54B
:1043E000A6A4A6639E439E439E649E84A684A68440
:1043F000A6A4A6A4A6A5A6A5A6A5A6A5A6A4A6A469
:10440000A684A6849E849E649E649E439E439E438F
:104410009E239E239E239E239E239E439E439E4334
:10442000A663A684AEA4AEC4AEC4B6E5B705B7060F
:10443000B705B705B705B705B705B6E4B6E4B6E402
:1044400075437563756375637D637D837DA385A304
:1044500085A385C385C385A285A285A285A285A2E1
:1044600085A28DC28DC28DC28DC28DC38DE38DE3B9
:104470008DE28DE28DE28DE28DE28E029603960250
:104480009603960296029602962296229E42A68352
:10449000AEC4BF05C746CF46CF67D788DFA9E7AA16
:1044A000F7ECF7CEF7B1F7F3A5AA4B2053A05BE0EA
:1044B0005380BE4AFFF3FFB3FFD3FFB1F7CFEFED59
:1044C000E7CBE7AADF89CF68CF47C726B705AEC5D8
:1044D000A6839E639E439E439E649E649E84A684A0
:1044E000A684A684A684A6A4A684A684A6849E8464
:1044F0009E849E649E649E439E439E439623962381
:10450000962396239623962396239E239E239E43AB
:104510009E63A684A6A4AEC4AEC5B6E5B705B7260D
:10452000BF06B705B705B705B705B6E5B704B705C4
:1045300075437543756375837D837DA385A485C4A9
:1045400085A385C385C385A385A285A285A285A2EF
:10455000858285A285A285A285A285A28DC28DC2F3
:104560008DC28DE28DE28DE28DE28E028E02960387
:1045700096038E0296029602960296229E42A663A9
:10458000AEA4BF05C746CF46CF67D788DFA9DF8A6D
:10459000EFABF7CDF7D0F7F29DA843004B605BE09F
:1045A0005B80B629FFF3FFB3FFD2F7D0F7EFEFCD73
:1045B000E7CBE7AAD788CF47C746BF25B6E5AEA465
:1045C000A6839E6396439E439E449E649E649E84FF
:1045D000A684A683A6839E839E639E639E639E633A
:1045E0009E639E43964396239623962396039603B3
:1045F0009623960396039603962396239E239E4323
:104600009E63A684A6A4AEA4AEC5B6E5B705B7055D
:10461000BF25B705B705B705BF05B705BF05BF255A
:104620006D437543756375837D837DA37DA385A3EA
:1046300085A385A385A385A385A38582858285A27D
:1046400085A285A285A285A285A285C28DC28DC2C2
:104650008DE28DE28DE28DE29602960295E295E37F
:104660008E038DE38DE28E02962296029E42A66311
:10467000B6C5B6A4C725C725CF87D768E7EB746052
:10468000EFCCEFCDE7CEE7F09E0753804B6064019F
:104690005BC0BE8AF7F1FFF2EFAEF7EEF7EEEFCCBC
:1046A000E7CADFA9D788CF67C725BF04AEE4A684D1
:1046B0009E639E43964396439E4496449E439E63C8
:1046C0009E639E629E639E639E639E639E439E4323
:1046D0009E439E439643962396238E0396028E0214
:1046E0008E029602960296239623962396239E4345
:1046F000A664A684AEA4AEC4B6C5B705BF05BF0503
:10470000BF05BF05BF05BF05BF05BF05BF25BF2549
:104710006D437543756375837D837D837D837DA341
:1047200085A385A385A385A38DA385A285828DA35B
:104730008DC285A285A28DC28DC28DC28DE28DE211
:1047400096029602960296029602960295E28DE2F3
:104750008DE38DE38DE28E028E018DE196029E4304
:10476000AE84B6E5C746BF05CF46D788D78A8D2128
:104770007C40E78DEFEFE7F0AE694BA053C06401DA
:1047800063E0B628F7F1E76EF7EEF7EDDF4AEFEBFF
:10479000E7C9D788CF67C746BF24B6E3AEA49E63F8
:1047A0009E43964396439643962496249623964397
:1047B0009E429E629E639E639E439E439E439E4393
:1047C000964396439623962396228E02960296024D
:1047D000960296029622962296429E439E439E639E
:1047E000A683AEA4AEC4AEC5B6E5B705BF05BF058A
:1047F000BF05BF05BF05BF05BF26BF26BF26BF2615
:104800006D437563756375837D837D837D837D8350
:1048100085A385A385A385A28DC38DC285A28DC3E3
:104820008DC28DC28DC28DC28DE28DE28DE2960267
:1048300096029602960296029603960396028DE3DE
:104840008DE38DE38DE28DE28DE18DC195E29E23B6
:10485000A644AEA4BF05C725C746D787DFA9E7ECA6
:1048600053005B40AE09DFD0A6294B8053A0538094
:1048700063E0B648EFF0E76EEFCDF7EDEFEBDFA9C1
:10488000DFA8D787CF47C726BF04AEC3A6839E4302
:104890009623962396229622962396039623962273
:1048A000964396439E439E439E439E439E439E440F
:1048B0009623962396239623962396229623962232
:1048C000962296229E229E429E629E629E82A6838F
:1048D000A6A3AEC3AEE4B6E5B6E5B705B706B70620
:1048E000BF25BF25BF26BF26BF26BF47C747C7472F
:1048F00075637563756375837D837D837D837D8239
:1049000085A385C385A385A28DC38DC38DA28DC3C9
:104910008DC28DC28DC28DE28DE28DE2960296032C
:10492000962396029602960296239623960395E284
:104930008DE38DE28DE28DE18DC18DC18DE2960317
:10494000A684B6C5BF05BF04C745D787CF47DF8953
:10495000EFED5B605B80AE6BA64A432053C15C0108
:1049600064209564E7AEEFEFE7CCDF8ADFAAE7C902
:10497000D787CF66C746BF26B6E4AEA3A6839E43BD
:10498000962296028E018E229603960396239623F4
:10499000962396439E449E449E449E449E449E433A
:1049A0009E439E439E439E439E439E439E439E43FF
:1049B0009E439E439E43A663A663A682A682AEA3A1
:1049C000A6A3AEC3AEE4B704B705B705B706B726CE
:1049D000BF25BF25BF46BF46BF47C747C747C747D5
:1049E000756375837583758375837D827D827D8212
:1049F00085A385C385C285C28DC38DC28DC38DE35A
:104A00008DE38DE28DE28DE3960396039603962364
:104A1000962396029602960296239623960395E293
:104A20008DE28DE28DE18DC18DC18DC18DC295E28A
:104A30009E23A663AEA3B6E3C745CF65D786D787C7
:104A4000DF8AE7CD63E05BE095C653E0644253C084
:104A500064409584EFEFBE68AE25E7EBD768DFC909
:104A6000CF86C745BF25BF05AEC4A6839E639622E9
:104A700096028E018E018E018E0296029622962259
:104A800096229E439E439E439E439E639E439E6307
:104A90009E639E639E639E639E439E63A663A6631E
:104AA000A664A664A664A684A683A683A683AEA3F2
:104AB000AEC3AEC4AF04B725B725B725B725B745F4
:104AC000BF45BF45BF46C766C767C767C767C767F4
:104AD0007563756375637563756375627D627D82E9
:104AE00085A285C385C285C28DE38DE38DE38DE20A
:104AF0008E038DE38E039603960396039603962307
:104B000096239623960296029623960295E28DE2CC
:104B10008DE28DE28DE28DE18DC185A185C28DC2D0
:104B20009E439E43AEA3BF24C724BEE3D786DFC8FF
:104B3000DFC9D769E7ED4B6064405C2053C053E0A8
:104B400053A07CE174607CC0E7EBD768E7EACF67ED
:104B5000CF65C745BF05B6E5A6A39E639E439602F3
:104B60008E028DE18DE18DE18DE18DE2960296223E
:104B7000962296429E439E639E639E639E639E63BF
:104B80009E639E63A663A663A663A663A683A684AC
:104B9000AEA4AEA3AEA4AEA4AEA4AE83AEA4AEC487
:104BA000AEE4B6E4B705B725B745B744BF44BF6523
:104BB000BF65BF66C766C767C787C767C767C76779
:104BC0006D636D6375636D42754275627562756282
:104BD0007D8285C385C285C28DE38DE38DE395E338
:104BE000962396039603962396239623962396233D
:104BF0009623962396239602960296028DE28DE2E4
:104C00008DE295E296028DE28DC285C285C285C293
:104C100085A19622A683AEA3BF04C745CF86C7054C
:104C2000CF46D7A8D7CA8D834B8074C24B8053C060
:104C30005C0053A07D01DFEBCF68D7A9CF47C74603
:104C4000C745BF24B705AEC4A6849E4396238E02F3
:104C50008DE285E185E18DE18E028E02960296223B
:104C600096239E439E439E639E639E639E839E8384
:104C7000A682A682A682A682A682A683AEA3AEA3A1
:104C8000AEC2AEC2AEC2AEC3AEC3AEC3AEC4B6E475
:104C9000B705B705B725BF45BF45BF65BF65C78524
:104CA000C786C766C787CF87CF87CF87CF67C767D6
:104CB00075436D436D436D426D2275427542754279
:104CC0007D6285A385A385C28DE396039603960333
:104CD000962396239623962396239623962396230C
:104CE00096029602960296029602960295E28DE24E
:104CF0008DE295E296028E028DE28DC285C285C25A
:104D00008DE28E029E42A683B6C4BEE4BF05CF6686
:104D1000CF66CF67CF68CF8A43404BA06C8253E009
:104D200053C05C20B6C7CF88CF88C746C746C745A3
:104D3000BF24B704AEC4A6849E4496238E038DE29E
:104D400085C185C185E18E028E028E02960396236F
:104D500096239E439E649E63A683A683A6A3A6A3D2
:104D6000A683A682A682A682A683A6A3AEA3AEC36E
:104D7000AEC2AEE2AEE2AEE3AEE3AEE3B6E4B7049B
:104D8000BF25BF25BF45BF65BF65BF65C765C78573
:104D9000C786C786CF87CF87CF88CF88CF67CF67B3
:104DA000754375436D236D226D026D227522754228
:104DB0007D427D8285A285C28DE38DE39603962395
:104DC000962396439643962396239602960296023E
:104DD00096239623960296028DE28DE28DE18DE177
:104DE00096028DE1962396038E038E038DE285C194
:104DF0008E028DC196229E43AEA4AEC4BF05BF06EF
:104E0000C726CF47C747D7CB53C0436053C06CA416
:104E100064435C00CF89BF25C786C766BF25B7043A
:104E2000B6E4AEC4A6A49E439E6485C28DE38DE223
:104E300085C285E285C18E028E0296439603962333
:104E40009E449E64A684A684A6A4A6839E83A6C42C
:104E5000A6A3A683AEC4A683AEA4AEA4A684B6E5DC
:104E6000AEE4AEE3B6E4B6E4AEE3B704B724B70409
:104E7000BF25C746CF86BF25CF66C746CF87CF663B
:104E8000CF87CFA7CF66D7A8D788D788CF48D748AE
:104E900075436D436D226D226D226D227522754220
:104EA00075427D6285A285C28DC2960396239623A4
:104EB0009E439E439643964396239623962396239A
:104EC000960296029602960296028DE295E295E18E
:104ED0009601962296029623960385A296238DE24A
:104EE00085A0962296429E42AEC5B6E5AE83B6E454
:104EF000BF26AE84BF26BF287CE3432053C05BE1BE
:104F000053C14B60C788BF45C786B6E4B6C3B6E495
:104F1000AEC4A6839E439E438DE296038E0385C254
:104F200085A296248E0385C2962396238DE29E65E4
:104F3000A6859E65AEA6A6A59E64A6A4B705A68373
:104F4000AEC49E83AEC4AEC4AEC4AEA4AEA4AEA482
:104F5000B6E4B705B705BF66BF25BF45BF25C74641
:104F6000C766BF05C747CF67CF68CF47CF47CF6773
:104F7000CF46D7A8D788D769D74AD74BD70ADF6C8F
:104F800075236D236D026D026D026D027522752110
:104F90007D427D62858285A28DC2960396439E44A2
:104FA0009E639E439623962296029602960296024E
:104FB0009602960296029602960296029602962211
:104FC0009E219E62A6839E439E649E6496029622C4
:104FD0009E4396028DE19E4395E1A683B705AEC33D
:104FE000B6E4C725B6E4C7489DE72AA04B604B60EE
:104FF00053A14360CFA9B725B6C4B6C4BF06AE64FB
:10500000A643A664A663962396238DE28DE28DE2E5
:105010008E0385A18DE38E0396238DE296439E2415
:10502000A667AE879DE5A645B6E7A6649E64AEC4B6
:10503000A6A3AEE4AEC3AEC3AEC4AEC4B6C4B6E4BB
:10504000B6E4BF24BF25BF46C746C746BF06C7272D
:10505000C707D78ACF49CF08D76AD74ADF6AD76A46
:10506000D789D748E7ABDF8CDF2DEF70DF10DF117A
:10507000752375026D026D026D0275027522752130
:105080007D427D8285A28DC28DE296239E439E63E2
:105090009E6396439622960296028E028DE28DE2E0
:1050A0008DE29602962296229622962296229E4281
:1050B0009E419E429E43A685A6459E0495E39E443E
:1050C00096038DC29E239E239602A6839E61AEA266
:1050D000AE82B6E4B6E5B6A6AE8A32C03AE053A0D8
:1050E00053A14BA0B6C7AE85B6C7A645AE46AE46E1
:1050F000AE879E04A6658DA295E39604856195E32F
:105100008DE38DE496059E258DE3A6659604A6475E
:105110008504852674625BC09E06B6C8AEA6A685C9
:10512000AEA4AEE4AEC4AEC3AEC3AEA3BF04BF0470
:10513000C746C747C747BEE7CF29C72ACF2BD72CBB
:10514000CF0CCF0DCEEDDF4FDF4FDF2EDF0ED6EDD4
:10515000E76DEFAEB609D6AEEF53E6F3EF36DE7489
:105160007523752275027502750275227D427D4296
:105170007D62858285A28DE28E0296239E439E6388
:105180009E639E429622962296028E028DE28DE1C9
:105190008DC18DE296029622962296229E429E42D2
:1051A0009E22B6C59E03A626AE68A607B68974C120
:1051B0007CE2A64795C495A39E2495E2A662A682AA
:1051C000AE83B6A4AE86BEC9BEED32804B604B60E6
:1051D00053C15BE0A648AE88C70CBEACBECD85050A
:1051E0009DA7A607A606AE6795A58DA595C58D8436
:1051F00095C695A66C83852595C69E06AE685BE030
:105200005B833A403A805BA33AA0C70DAE48B6C86C
:10521000AE86B6E6B6C5BF25AEA3BF25CF66BEE552
:10522000C708C6E9CF2BD72CD72ECEEECED0CEB125
:10523000DEF3EF55F7B7E716E716E6F5EF37EF566B
:10524000DED2CE50CE51F757F717DE76DE16D5F602
:105250007502750275027502750175227D427D62C7
:10526000858285A28DC28DE2960296439E439E63FF
:105270009E639E429622962296028E028DE28DE1D8
:105280008DC18DE196029602962296429E439E43E0
:10529000A6249DE4B689C6EC84E642E05BA23240D7
:1052A00063C1AE2A9DC89565A60695A3A6449E0235
:1052B000A644AE67A5E78D473AC03AA04300432015
:1052C00053A14B6095888D683280534232206BE544
:1052D0004AE111409D896C2284C584E5B68B8D47D7
:1052E00074645361326042E19DCAAE6C6403324023
:1052F0003A4219005B05428211205361CF0EBEABCA
:10530000BECABEC9B6A7B6C7C728B6C6BEA6C6E837
:10531000CEEBCEADD6CEDF10D6D1DEF3DED4DEB509
:10532000BDD2944D83AC62C88BEDDE97CDF5B552FE
:10533000DE55FF79EED8E677DE37DE38DDF7D5D7F4
:1053400074E1750275027D227D227D42856285822F
:1053500085A28DC28DC28DE2960296429E429E42E9
:105360009E639E639642962296028E028DE28DE2A5
:105370008DE28DE29602962296429E639E63A6641B
:10538000AE479DA76C035B4242813A2129C04AC3C4
:105390004AA252E34AC132207484B6AA9DC5A646E9
:1053A000AE4863E119A042A200C032422A403AA1AD
:1053B00032C04B813AC021E042C3322121801940E2
:1053C0004244426363863A405B64532342C15B6458
:1053D0005324320100A0322342C37C695344530555
:1053E0003A0318E039C24AA43A216BC67C478CE8DC
:1053F0008CE7C6CDB64BA5C88D05CF2DC6CCCEAD9E
:10540000DED1DEB2DED3CE51D672D653C5D18C0BEF
:1054100062C762A7734A6AE852253962DE97EF19BC
:10542000F71ADE37DE38E678E638E638CD75DDD6B1
:10543000750175227D427D627D62858285A38DC363
:105440008DC28DC28DC28DE18E0296429E429E42D9
:105450009E829E639E6396429622960296029622B2
:105460009602960296239E239E44A664A665AE6786
:10547000AE0974051920320019205AE7424431A2BE
:1054800039E2422352C552E33A606C04A5C9AE4BDF
:105490006C032A2042C332023203320232013261EB
:1054A0003AA03AE12A40114021A129C3424629836A
:1054B00018E14A6642445B063A0221401920424301
:1054C00029A1320331C44AA732033202428419406F
:1054D00039E4738B4A45424452E64AA363866BE63D
:1054E00032003200740653225B438488DF33D6F3E4
:1054F000E736DE94DE749CADCE13E6F7F7389C8E6B
:1055000062C75AA731415A666B0983ABA48FE698EC
:10551000D5F7E659E618E638D5D7D5B6DE17EE99B1
:1055200075217D428563858385A3858285A28DC291
:105530008DE396038E0296438E0296429E639E8270
:105540009E819E81A6C4966396239E648E029E636E
:105550009E429E639E44A686AE67AE67AE87BEAB94
:105560005302636752A5296052C721004A66210091
:1055700039E3528673AA18E01900190029A031E016
:105580005B647C4852C529804264192029C132429B
:1055900032612A203AA300E0006010E031A33A050E
:1055A0004A662982296131A2296139E34A6452C6D7
:1055B000632852A6420452C752A652C631C24AA616
:1055C000528631A218E010C052A63A038C6C31C149
:1055D000296021205B053A0131A039E194CD632790
:1055E000944DD676CE359CAEAD3120E0084020E01B
:1055F00031825AC762E76B2973096266A44ED5B43B
:10560000D5B5DE17D5B6D5F6E679F6FAEEDAEEDAE6
:105610007D427D427D427D62856285828DC28DE3C1
:1056200096038DE28E0296229E63A6839E629E83DF
:10563000AEE3A6A29E429E649E4596249E44960397
:10564000A665A666B6A874829567BECD9D8842A061
:1056500019004A4518E010800000296239E452A779
:1056600039E442252941630810A03182212118E044
:1056700031E129A042455AE721202960214029A192
:105680002A023AA45346116000800880212139E49F
:1056900042452962296210A039C329623162630838
:1056A0005286210052A663085AE76349844C5B087E
:1056B0006BAA63484A655AE773AA73AA31815AE70D
:1056C000420439E331A273AA10A031A239E352C7D0
:1056D0007B8B7349A5105A874A455AC76B8A634921
:1056E00039C339C362E852665A668BACAC90BD12BE
:1056F000AC70CD75EE99FF3CFF1BEEDAEEDAEEDA18
:10570000856185828DA28DC28DC38DC28DC28DC2F1
:1057100095E29E439E43A683A6A39E62A6A3AEC423
:10572000AEA3A643AE85AE66A627AE48B689B669D7
:10573000A5E8BEAC84A63200636431E031E04242A9
:10574000632752A763293A04840C6B6A63094225D4
:105750004A46420518E021214A6652A75AC75AE82C
:1057600031A3298310800000296239E431C321610B
:1057700000A03A835BC66C08006008C063474A8596
:1057800019002101214129824A465AC818E04A4598
:1057900052865AE752A77BEB5AC75AC74245212087
:1057A00039E38C8E5AC74A657BEBA5306B49948EE2
:1057B00073AA8C6D4A6531A24224632831E35AE70B
:1057C0004A2518C05AA739C341E463084A6531A382
:1057D0005AE773AB630883EC8BCC5A26836B9C0E21
:1057E000DDF6FF3CFF3CEE79EEBAFF1BF6FBDE3840
:1057F00085628D828DA28DA28DA28DC295E39603C6
:105800009E239E02AE84AE84A683AEC4AEA4A663DD
:10581000B686BEC8BE8984E46BE28D076BE363C3C2
:105820003A404AC1298042423A03318218C02100DD
:1058300039C339C34A6642254A6629623182294101
:105840004A465AE8630831A363095AC842254226EA
:1058500031A452A97BEE528831A4296210800060E5
:105860001100322253663A615B679D2E4A84632899
:1058700039C3634952C72141294142057BEC31A319
:105880004A254A664A4542244A665AC752A77BECD3
:105890004A654A667C0C39E331C3842C63283A0498
:1058A00073AA63498C4D63494A86424529616B69F5
:1058B000420452866B49840C52A65AC74A6531820B
:1058C00073AB738A5AA75AA741A43943A44FEE7801
:1058D000EEB9E638EE79F6DAF6BAE638EE79DE3881
:1058E0008D638D8495A495C495A495C49DC49DE4B1
:1058F000A625AE65AE65B6A7AE65A644B6A6BEC87B
:10590000BE8A7C64A58B428052E3298031C0632526
:105910002140422252A510A018A039C439A45267D0
:1059200039C418C018E031A32142424542054A66F5
:105930005AC7296239C47BCC6B4A2962420510C020
:105940003A053A0542265AC84A46420518E131A4AA
:1059500010E000A03202322229A131A27BCC39C44E
:105960007BEC63296B6A422539C44A45108039C3F0
:1059700039C439C429622100738B5AC74A664A86E2
:105980005AE86B6A52A763086B6A4225422529824E
:105990002962294163294225528673CB42244A86D3
:1059A00073AB63282100318229622120420452A76F
:1059B0005AE8420562C852673963940EEEB9EEB9EF
:1059C000F71BFF1BF6DAE679EEBAE658E658E6383A
:1059D0008D269588A5E9AE2AAE4BB66BB66BB68B15
:1059E000B66BB66AB66AAE09AE29B66A9DA65B808A
:1059F0005B015B034221424339E2296010A04A4423
:105A0000632863087BCC62E939A4292362CA420671
:105A100029423183424631C410A03A054205212172
:105A200052865AE852A752A75AE839E4422539E487
:105A3000424539E329414205420521010860002021
:105A4000002021A329C31920088042265AC94206F2
:105A5000528752A75287528752A76B494A6639C468
:105A6000108029425AE85AE831A34A664245632920
:105A70004A4631C463294A46210139C352868C4DB6
:105A80006B49294129614A8652A731C35B0873CB10
:105A900073CA8C6D844CA530948E8C4D738A5AC811
:105AA00018C039A4294228E2942FF73BEEDAFF3BD5
:105AB000F6FAE699E678E699EE99EE99EE99DDF632
:105AC000F7F9F7F9F7F9EFD8EFD8EFF8F7F8F7D8D3
:105AD000EFB7EF96F7D7DF55FFF9A58E42625B046B
