:020000040800F2
:1000000000C00020E1140008610500086305000835
:100010006505000867050008690500080000000084
:100020000000000000000000000000006B05000858
:100030006D050008000000006F050008710500084C
:100040002915000829150008291500082915000898
:100050002915000829150008291500082915000888
:100060002915000829150008291500082915000878
:100070002915000829150008291500082915000868
:100080002915000829150008291500082915000858
:100090002915000829150008291500082915000848
:1000A0002915000829150008291500082915000838
:1000B0002915000829150008291500082915000828
:1000C0002915000829150008291500082915000818
:1000D0002915000829150008291500082915000808
:1000E00029150008291500082915000829150008F8
:1000F00029150008291500082915000829150008E8
:1001000029150008291500082915000829150008D7
:1001100029150008291500082915000829150008C7
:1001200029150008291500082915000829150008B7
:1001300000000000000000000000000000000000BF
:1001400000000000000000000000000000000000AF
:10015000000000000000000000000000000000009F
:10016000000000000000000000000000000000008F
:10017000000000000000000000000000000000007F
:10018000000000000000000000000000000000006F
:10019000000000000000000000000000000000005F
:1001A000000000000000000000000000000000004F
:1001B000000000000000000000000000000000003F
:1001C000000000000000000000000000000000002F
:1001D000000000000000000000000000000000001F
:0401E0005FF8E0F1F3
:1001E4000348044B834202D0034B03B118477047C2
:1001F4000C0000200C000020000000000548064B05
:100204001B1AD90F01EBA301491002D0034B03B110
:10021400184770470C0000200C000020000000006C
:1002240010B5064C237843B9FFF7DAFF044B13B13A
:100234000448AFF300800123237010BD0C0000209C
:10024400000000008415000808B5054B1BB10549E2
:100254000548AFF30080BDE80840FFF7CFBF00BFFB
:1002640000000000100000208415000872B6FEE7AC
:1002740010B590B006AC28220021204601F053F9B5
:10028400002301930293039304930593012206929E
:100294004FF4803307930A9202220D920E934FF487
:1002A400E0130F93204600F0A7FC78B90F230193C5
:1002B40002210291002303934FF480620492059378
:1002C40001A800F0CBFE18B910B010BDFFF7CEFFA7
:1002D400FFF7CCFF10B500F041FCFFF7C9FF00F0B9
:1002E4002FF800F0C7F8154C0021204600F032FB2F
:1002F4000421204600F02EFB0821204600F02AFBB2
:100304001AE00E4B1B685C639C63DC63012000F005
:1003140049FC013442F20F739C42F2D942F2107448
:1003240008E0064B1B685C639C63DC63012000F0FF
:1003340039FC013C002CF4D10024EBE72800002018
:1003440070B588B004AD0024049405940694079411
:10035400184B9A6942F020029A619A6902F02002CD
:100364000192019A9A6942F008029A619A6902F02C
:1003740008020292029A9A6942F004029A619B6905
:1003840003F004030393039B0B4E01224FF480718B
:10039400304601F031F84FF4807304930123059340
:1003A4000694022307932946304600F00DFF08B057
:1003B40070BD00BF00100240000C01400268094BF0
:1003C4009A4200D0704782B003F564439A6942F4BC
:1003D40000629A619B6903F400630193019B02B07C
:1003E400704700BF002C014030B587B00023029352
:1003F40003930493059302681A4B9A4201D007B001
:1004040030BD03F564439A6942F008029A619A691F
:1004140002F008020092009A9A6942F004029A617A
:100424009B6903F004030193019B032302930224B9
:100434000394059402AD29460B4800F0C5FE4FF421
:10044400E0630293039405942946084800F0BCFE37
:10045400074A536823F0C00343F0E06343F04003CA
:100464005360CCE7002C0140000C0140000801401F
:100474000000014010B592B0002410941194099426
:100484000A940B940C940D940E940F9420222146FC
:1004940001A801F048F82F482F4B0360472343601D
:1004A400846042F21073C36004614461846100F0AB
:1004B4006FF900283CD100231093119310A925480B
:1004C40000F0BEFA002836D16023099341F2883344
:1004D4000A9300220B920C920D920E920F9209A98C
:1004E4001C4800F0B9F948BB40F6B8330A9304221B
:1004F40009A9184800F0B0F918BB082209A9154841
:1005040000F0AAF900BB0023019302930393322263
:10051400049205934FF400520692089301A90D48E2
:1005240000F0CCFA98B90B48FFF75EFF12B010BD8B
:10053400FFF79CFEBFE7FFF799FEC5E7FFF796FEBE
:10054400D2E7FFF793FED8E7FFF790FEDBE7FFF76C
:100554008DFEE8E728000020002C0140FEE7FEE7BE
:10056400FEE7FEE7FEE770477047704708B500F006
:1005740007FB08BD82B00E4B9A6942F001029A61F2
:100584009A6902F001020092009ADA6942F08052FC
:10059400DA61DB6903F080530193019B054A5368D8
:1005A40023F0E06343F00073536002B0704700BF70
:1005B400001002400000014030B4036A026A22F0D5
:1005C400010202624268846924F0730C0C6844EAF4
:1005D4000C0423F0020C8B6843EA0C03114DA8426F
:1005E40003D005F50065A84205D123F00803CD68C2
:1005F4002B4323F004030B4DA84203D005F50065FB
:10060400A84207D122F440724D6945EA020C8A6976
:1006140042EA0C02426084614A684263036230BC6D
:10062400704700BF002C014030B4036A026A22F410
:10063400807202624268C46924F0730C0C6844EA54
:100644000C0523F400738C6843EA0423114CA04284
:1006540003D004F50064A04206D123F40063CC68FF
:1006640043EA042323F480630A4CA04203D004F534
:100674000064A04207D122F440524C6942EA0412B9
:100684008C6942EA04124260C5614A68C26303622B
:1006940030BC7047002C014030B4036A026A22F473
:1006A400805202624468C26922F4E6420D6842EA5A
:1006B400052223F400538D6843EA0533094DA8420B
:1006C40003D005F50065A84204D124F480444D69A3
:1006D40044EA85144460C2614A680264036230BC1F
:1006E400704700BF002C01400368284A904212D092
:1006F40002F5006290420ED0B0F1804F0BD0A2F50B
:100704009832904207D002F58062904203D002F5FD
:100714008062904203D123F070034A6813431B4A5A
:10072400904212D002F5006290420ED0B0F1804F98
:100734000BD0A2F59832904207D002F58062904225
:1007440003D002F58062904203D123F44073CA6857
:10075400134323F080034A69134303608B68C36225
:100764000B688362094B984203D003F500639842F7
:1007740001D10B69036301234361036913F0010F82
:1007840003D0036923F0010303617047002C014087
:1007940040B310B5044690F83D30F3B1022384F819
:1007A4003D30214651F8040BFFF79EFF012384F8E6
:1007B400463084F83E3084F83F3084F8403084F882
:1007C400413084F8423084F8433084F8443084F86B
:1007D400453084F83D30002010BD80F83C30FFF7F0
:1007E400EDFDDBE70120704730B4036A026A22F0B2
:1007F400100202624468826922F4E6420D6842EA09
:10080400052223F020038D6843EA0513114DA84205
:1008140003D005F50065A84206D123F08003CD6816
:1008240043EA051323F040030A4DA84203D005F51B
:100834000065A84207D124F440644D6944EA850464
:100844008D6944EA8504446082614A688263036274
:1008540030BC7047002C014038B590F83C30012B77
:1008640066D004460D46012380F83C300C2A5AD841
:10087400DFE802F0075959591B5959593059595948
:1008840044000068FFF798FE2268936943F0080368
:1008940093612268936923F0040393612268936946
:1008A40029690B43936100203EE00068FFF79CFF39
:1008B4002268936943F4006393612268936923F483
:1008C4008063936122689369296943EA01239361F0
:1008D400002029E00068FFF7A7FE2268D36943F0EF
:1008E4000803D3612268D36923F00403D361226827
:1008F400D36929690B43D361002015E00068FFF731
:10090400CBFE2268D36943F40063D3612268D369C0
:1009140023F48063D3612268D369296943EA0123FC
:10092400D361002000E00120002384F83C3038BD6E
:100934000220FCE701F01F014FF0010C0CFA01FC4E
:10094400036A23EA0C030362036A8A4013430362C3
:100954007047000010B504460846002939D194F8C0
:100964003E30013B18BF0123002B63D1002846D140
:10097400022384F83E30012201462068FFF7DAFFA3
:1009840023682E4A934203D002F50062934203D1B6
:100994005A6C42F400425A642368284A93423ED077
:1009A40002F5006293423AD0B3F1804F37D0A2F5FA
:1009B4009832934233D002F5806293422FD002F5ED
:1009C400806293422BD01A6842F001021A60002020
:1009D4002FE0042907D008290BD094F84130013BBB
:1009E40018BF0123C0E794F83F30013B18BF01232F
:1009F400BAE794F84030013B18BF0123B4E7042858
:100A040005D0082807D0022384F84130B3E7022335
:100A140084F83F30AFE7022384F84030ABE79A68AC
:100A240002F00702062A07D01A6842F001021A608F
:100A3400002010BD0120FCE70020FAE7002C014053
:100A440090F83C20012A34D010B40346012280F8E7
:100A54003C20022280F83D2002685068946820F00F
:100A6400700C086840EA0C0050601A681248824210
:100A740012D000F5006082420ED0B2F1804F0BD04C
:100A8400A0F59830824207D000F58060824203D0FE
:100A940000F58060824204D124F080044968214337
:100AA4009160012283F83D20002083F83C0010BCB3
:100AB40070470220704700BF002C0140024690F8A6
:100AC4003C30012B21D0012380F83C30CB6823F447
:100AD40040738868034323F480634868034323F422
:100AE40000630868034323F480530869034323F431
:100AF40000534869034323F48043C9690B431168D5
:100B04004B64002082F83C007047022070470000CC
:100B140010B504460E4B1A784FF47A73B3FBF2F314
:100B24000C4A1068B0FBF3F000F0C2FC68B90F2C5B
:100B340001D901200AE0002221464FF0FF3000F0E5
:100B4400A7FC054B1C60002000E0012010BD00BF85
:100B540000000020080000200400002008B5074A17
:100B6400136843F010031360032000F07FFC0F2090
:100B7400FFF7CEFFFFF7FEFC002008BD0020024077
:100B8400034A1168034B1B780B441360704700BF82
:100B94007000002000000020014B1868704700BF5F
:100BA4007000002038B50446FFF7F6FF0546B4F19F
:100BB400FF3F02D0044B1B781C44FFF7EDFF401BA2
:100BC400A042FAD338BD00BF0000002082B0084B19
:100BD4001B68084AA2FB03235B0A00FB03F301938F
:100BE40000BF019B5A1E0192002BF9D102B070473D
:100BF40008000020D34D6210002800F0F18170B588
:100C040082B00446036813F0010F2CD0994B5B6843
:100C140003F00C03042B1DD0964B5B6803F00C030C
:100C2400082B12D06368B3F5803F41D0002B55D117
:100C340003F1804303F504331A6822F480321A6006
:100C44001A6822F480221A6037E08A4B5B6813F436
:100C5400803FE7D0874B1B6813F4003F03D06368E1
:100C6400002B00F0BF81236813F0020F75D0814B75
:100C74005B6813F00C0F5FD07E4B5B6803F00C03D2
:100C8400082B54D02369002B00F08A807A4B012270
:100C94001A60FFF781FF0546764B1B6813F0020FBD
:100CA40075D1FFF779FF401B0228F5D903209EE197
:100CB400704A136843F480331360636843B3FFF7E7
:100CC4006BFF05466B4B1B6813F4003FCBD1FFF75A
:100CD40063FF401B6428F5D9032088E1B3F5A02FF6
:100CE40009D0644B1A6822F480321A601A6822F41C
:100CF40080221A60E1E703F18043A3F53C331A68CC
:100D040042F480221A601A6842F480321A60D4E7EE
:100D1400FFF742FF0546574B1B6813F4003FA2D070
:100D2400FFF73AFF401B6428F5D903205FE1514BDC
:100D34005B6813F4803FA5D14E4B1B6813F0020F80
:100D440003D02369012B40F04F814A4A136823F0F2
:100D5400F803616943EAC1031360236813F0080FC1
:100D640033D0A369002B5CD0434B0122C3F8802409
:100D7400FFF712FF05463F4B5B6A13F0020F21D1C8
:100D8400FFF70AFF401B0228F5D903202FE1394A57
:100D9400136823F0F803616943EAC1031360DCE7D5
:100DA400354B00221A60FFF7F7FE0546314B1B68EE
:100DB40013F0020FD1D0FFF7EFFE401B0228F5D944
:100DC400032014E10120FFF701FF236813F0040F4F
:100DD40000F09680274BDB6913F0805F34D1254BFC
:100DE400DA6942F08052DA61DB6903F080530193DF
:100DF400019B0125214B1B6813F4807F26D0E368F7
:100E0400012B3DD0002B53D103F1804303F5043370
:100E14001A6A22F001021A621A6A22F004021A62A1
:100E240033E0154B0022C3F88024FFF7B5FE0546D6
:100E3400104B5B6A13F0020FC7D0FFF7ADFE401BE7
:100E44000228F5D90320D2E00025D3E70B4A136822
:100E540043F480731360FFF79FFE0646074B1B683D
:100E640013F4807FCBD1FFF797FE801B6428F5D95C
:100E74000320BCE000100240000042420070004029
:100E84005F4A136A43F001031362E36833B3FFF765
:100E940083FE06465A4B1B6A13F0020F2FD1FFF74D
:100EA4007BFE801B41F288339842F3D903209EE0F5
:100EB400052B09D0524B1A6A22F001021A621A6AEF
:100EC40022F004021A62E0E74D4B1A6A42F004026F
:100ED4001A621A6A42F001021A62D6E7FFF75CFE50
:100EE4000646474B1B6A13F0020F08D0FFF754FE67
:100EF400801B41F288339842F3D9032077E0E5B9A7
:100F0400E369002B72D03E4A526802F00C02082AB0
:100F140056D0022B17D03B4B00221A66FFF73CFE3B
:100F24000446374B1B6813F0007F47D0FFF734FEAD
:100F3400001B0228F5D9032059E0314AD36923F074
:100F44008053D361DCE72F4B00221A66FFF724FE9F
:100F540005462B4B1B6813F0007F06D0FFF71CFEE1
:100F6400401B0228F5D9032041E0236AB3F5803FF2
:100F74001AD023494B6823F47413226A606A02432B
:100F840013434B601F4B01221A66FFF705FE04460C
:100F94001B4B1B6813F0007F0ED1FFF7FDFD001BF8
:100FA4000228F5D9032022E0154A536823F40033BC
:100FB400A1680B435360DCE7002018E0002016E032
:100FC400012B16D00E4B5B6803F48031226A9142E8
:100FD40011D103F47013626A93420ED1002006E02B
:100FE40001207047012002E0012000E0002002B04F
:100FF40070BD0120FBE70120F9E70120F7E700BFFE
:1010040000100240000042420F4B5B6803F00C02E8
:10101400082A01D00D487047C3F383420C49885C09
:1010240013F4803F0BD0084B5B68C3F34043094A79
:10103400D35C064A02FB00F0B0FBF3F07047064BAA
:1010440003FB00F0704700BF0010024000127A005A
:10105400A01500089C15000800093D00002800F0B8
:10106400A08070B50D460446524B1B6803F007037D
:101074008B420BD24F4A136823F007030B431360D0
:10108400136803F007038B4240F08D80236813F04C
:10109400020F17D013F0040F04D0474A536843F4E7
:1010A400E0635360236813F0080F04D0424A536886
:1010B40043F460535360404A536823F0F003A1683B
:1010C4000B435360236813F0010F31D06368012B85
:1010D40020D0022B25D0384A126812F0020F64D0B7
:1010E40035494A6822F0030213434B60FFF754FD6D
:1010F4000646314B5B6803F00C036268B3EB820F66
:1011040016D0FFF749FD801B41F288339842F0D98D
:10111400032045E0284A126812F4003FE0D1012080
:101124003EE0254A126812F0007FD9D1012037E051
:10113400204B1B6803F00703AB420AD91D4A13680E
:1011440023F007032B431360136803F00703AB4238
:101154002DD1236813F0040F06D0174A536823F4E3
:10116400E063E1680B435360236813F0080F07D072
:10117400114A536823F46053216943EAC10353605D
:10118400FFF742FF0C4B5B68C3F303130B4AD35CBA
:10119400D8400B4B18600B4B1868FFF7B9FC0020C4
:1011A40070BD012070470120FAE70120F8E7012013
:1011B400F6E700BF0020024000100240B01500080E
:1011C400080000200400002070B582B00024A4466A
:1011D400A8E0834DAB4214D00CD8A5F58015AB42E2
:1011E4000FD005F57025AB420BD0A5F58015AB42A9
:1011F4001FD106E07B4DAB4203D005F58035AB42F1
:1012040017D18B68A3B1012B0DD04261082410E0E3
:10121400CC680EE0CC6804340BE0CC68083408E0F9
:10122400CC680C3405E00261082402E0002400E0EC
:101234000424BEF1FF0F41D806464FEA8C023368FE
:101244000F25954023EA050304FA02F213433360A1
:101254004B6813F0805F63D0634B9A6942F00102DC
:101264009A619B6903F001030193019B4FEA9C027D
:10127400951C5E4B53F825600CF00305AD000F235D
:10128400AB4026EA03065A4B98421ED003F580630E
:10129400984200F0838003F58063984200F08080D8
:1012A40003F5806398427DD003F5806398427BD038
:1012B40003F58063984206D0062307E0061DACF1CF
:1012C40008029200BBE7052300E00023AB40334350
:1012D4000232464D45F822304B6813F4801F65D026
:1012E400444A936843EA0E0393604B6813F4001F67
:1012F40062D0404AD36843EA0E03D3604B6813F4C8
:10130400003F5FD03B4A536843EA0E0353604B6887
:1013140013F4803F5CD0374A136843EA0E0313602A
:101324000CF1010C0B6833FA0CF257D0012202FACB
:101334000CF203EA020E32EA0303F1D14B68122BDA
:101344003FF647AF122B3FF674AF01A555F823F0D3
:1013540007120008151200081F12000831120008B5
:101364003712000837120008371200083712000835
:101374003712000837120008371200083712000825
:101384003712000837120008371200083712000815
:10139400371200081912000825120008012395E7E6
:1013A400022393E7032391E704238FE7114A936809
:1013B40023EA0E03936098E70E4AD36823EA0E03E8
:1013C400D3609BE70B4A536823EA0E0353609EE7FE
:1013D400084A136823EA0E031360A1E702B070BD44
:1013E40000002210000031100010024000000140F3
:1013F40000080140000401400AB10161704709047A
:1014040001617047002808DB0901C9B200F160409E
:1014140000F5614080F80013704700F00F000901E7
:10142400C9B2014B1954704714ED00E000B500F047
:101434000700C0F1070CBCF1040F28BF4FF0040CE7
:10144400031D062B0FD9C31E4FF0FF3E0EFA0CF0FE
:1014540021EA000199400EFA03FE22EA0E0241EA53
:1014640002005DF804FB0023EEE70000074AD3689E
:1014740023F4E0631B041B0C000200F4E06003434C
:1014840043F0BF6343F40033D360704700ED00E0E2
:1014940010B50446054BD868C0F30220FFF7C6FF19
:1014A40001462046FFF7AEFF10BD00BF00ED00E08F
:1014B4000138B0F1807F0BD24FF0E0235861054A28
:1014C400F02182F823100020986107221A617047E6
:1014D4000120704700ED00E070470000FFF7FCFFBB
:1014E4000B480C490C4A002302E0D458C45004337E
:1014F400C4188C42F9D3094A094C002301E0136053
:101504000432A242FBD300F017F8FEF7E3FE704763
:10151400000000200C000020C81500080C0000206A
:1015240074000020FEE703460244934200D1704752
:1015340003F8011BF9E7000070B500260C4D0D4BB4
:101544005B1B9C10A64209D1002600F019F80A4D35
:101554000A4B5B1B9C10A64205D170BD55F8043B99
:1015640098470136EEE755F8043B98470136F2E711
:10157400C0150008C0150008C0150008C4150008EF
:10158400F8B500BFF8BC08BC9E467047F8B500BF6C
:08159400F8BC08BC9E4670473C
:10159C000102000002030405060708090A0B0C0DE2
:1015AC000E0F1010000000000000000001020304E8
:0415BC00060708090D
:0415C0004D020008D0
:0415C40025020008F4
:0C15C800010000001000000000127A007A
:04000005080014E1FA
:00000001FF
