:020000040800F2
:1000000000C00020C5170008D1030008D303000872
:10001000D5030008D7030008D9030008000000003A
:10002000000000000000000000000000DB030008EA
:10003000DD03000800000000DF030008E103000802
:100040000D1800080D1800080D1800080D180008FC
:100050000D1800080D1800080D1800080D180008EC
:100060000D1800080D1800080D1800080D180008DC
:100070000D1800080D1800080D1800080D180008CC
:100080000D1800080D1800080D1800080D180008BC
:100090000D1800080D1800080D1800080D180008AC
:1000A0000D1800080D1800080D1800080D1800089C
:1000B000E9030008F90300080D1800080D180008EE
:1000C0000D1800080D1800080D1800080D1800087C
:1000D0000D1800080D1800080D1800080D1800086C
:1000E0000D1800080D1800080D1800080D1800085C
:1000F0000D1800080D1800080D1800080D1800084C
:100100000D1800080D1800080D1800080D1800083B
:100110000D1800080D1800080D1800080D1800082B
:100120000D1800080D1800080D1800080D1800081B
:1001300000000000000000000000000000000000BF
:1001400000000000000000000000000000000000AF
:10015000000000000000000000000000000000009F
:10016000000000000000000000000000000000008F
:10017000000000000000000000000000000000007F
:10018000000000000000000000000000000000006F
:10019000000000000000000000000000000000005F
:1001A000000000000000000000000000000000004F
:1001B000000000000000000000000000000000003F
:1001C000000000000000000000000000000000002F
:1001D000000000000000000000000000000000001F
:0401E0005FF8E0F1F3
:1001E4000348044B834202D0034B03B118477047C2
:1001F4000C0000200C000020000000000548064B05
:100204001B1AD90F01EBA301491002D0034B03B110
:10021400184770470C0000200C000020000000006C
:1002240010B5064C237843B9FFF7DAFF044B13B13A
:100234000448AFF300800123237010BD0C0000209C
:10024400000000006818000808B5054B1BB10549FB
:100254000548AFF30080BDE80840FFF7CFBF00BFFB
:1002640000000000100000206818000872B6FEE7C5
:1002740010B590B006AC28220021204601F0C5FA42
:10028400002301930293039304930593012206929E
:100294004FF4803307930A9202220D920E934FF487
:1002A400E0130F93204600F02FF978B90F23019340
:1002B40002210291002303934FF480620492059378
:1002C40001A800F053FB18B910B010BDFFF7CEFF22
:1002D400FFF7CCFF08B500F0DDF8FFF7C9FF00F029
:1002E40009F801F023F901F075F901F0E5F801F0DE
:1002F400D7F9FEE72DE9F04788B004AD0024049453
:100304000594069407942D4B9A6942F020029A6151
:100314009A6902F020020192019A9A6942F0080255
:100324009A619A6902F008020292029A9A6942F06A
:1003340004029A619B6903F004030393039BDFF8AF
:10034400808022464FF40051404600F0DDFCDFF887
:1003540074A001224FF48071504600F0D5FCDFF800
:10036400689022460421484600F0CEFC01224FF456
:100374008071404600F0C8FC4FF4045304930127F5
:1003840005970694022607962946404600F0A4FBEA
:100394004FF48073049305970694079629465046B4
:1003A40000F09AFB042304930597069407962946C4
:1003B400484600F091FB08B0BDE8F0870010024009
:1003C400000C01400008014000140140FEE7FEE774
:1003D400FEE7FEE7FEE770477047704708B500F098
:1003E4006BF808BD08B5024800F0D7FD08BD00BF92
:1003F400BC00002008B5024800F0CFFD08BD00BFD6
:100404007400002082B00E4B9A6942F001029A6196
:100414009A6902F001020092009ADA6942F080526D
:10042400DA61DB6903F080530193019B054A536849
:1004340023F0E06343F00073536002B0704700BFE1
:10044400001002400000014010B504460E4B1A781B
:100454004FF47A73B3FBF2F30C4A1068B0FBF3F079
:1004640000F0BCFC68B90F2C01D901200AE000227D
:1004740021464FF0FF3000F093FC054B1C60002038
:1004840000E0012010BD00BF000000200800002093
:100494000400002008B5074A136843F010031360F2
:1004A400032000F06BFC0020FFF7CEFFFFF7AAFF4C
:1004B400002008BD00200240034A1168034B1B784A
:1004C4000B441360704700BF280000200000002088
:1004D400014B1868704700BF2800002082B0084B09
:1004E4001B68084AA2FB03235B0A00FB03F3019386
:1004F40000BF019B5A1E0192002BF9D102B0704734
:1005040008000020D34D6210002800F0F18170B57E
:1005140082B00446036813F0010F2CD0994B5B683A
:1005240003F00C03042B1DD0964B5B6803F00C0303
:10053400082B12D06368B3F5803F41D0002B55D10E
:1005440003F1804303F504331A6822F480321A60FD
:100554001A6822F480221A6037E08A4B5B6813F42D
:10056400803FE7D0874B1B6813F4003F03D06368D8
:10057400002B00F0BF81236813F0020F75D0814B6C
:100584005B6813F00C0F5FD07E4B5B6803F00C03C9
:10059400082B54D02369002B00F08A807A4B012267
:1005A4001A60FFF795FF0546764B1B6813F0020FA0
:1005B40075D1FFF78DFF401B0228F5D903209EE17A
:1005C400704A136843F480331360636843B3FFF7DE
:1005D4007FFF05466B4B1B6813F4003FCBD1FFF73D
:1005E40077FF401B6428F5D9032088E1B3F5A02FD9
:1005F40009D0644B1A6822F480321A601A6822F413
:1006040080221A60E1E703F18043A3F53C331A68C2
:1006140042F480221A601A6842F480321A60D4E7E5
:10062400FFF756FF0546574B1B6813F4003FA2D053
:10063400FFF74EFF401B6428F5D903205FE1514BBF
:100644005B6813F4803FA5D14E4B1B6813F0020F77
:1006540003D02369012B40F04F814A4A136823F0E9
:10066400F803616943EAC1031360236813F0080FB8
:1006740033D0A369002B5CD0434B0122C3F8802400
:10068400FFF726FF05463F4B5B6A13F0020F21D1AB
:10069400FFF71EFF401B0228F5D903202FE1394A3A
:1006A400136823F0F803616943EAC1031360DCE7CC
:1006B400354B00221A60FFF70BFF0546314B1B68D0
:1006C40013F0020FD1D0FFF703FF401B0228F5D926
:1006D400032014E10120FFF701FF236813F0040F46
:1006E40000F09680274BDB6913F0805F34D1254BF3
:1006F400DA6942F08052DA61DB6903F080530193D6
:10070400019B0125214B1B6813F4807F26D0E368ED
:10071400012B3DD0002B53D103F1804303F5043367
:100724001A6A22F001021A621A6A22F004021A6298
:1007340033E0154B0022C3F88024FFF7C9FE0546B9
:10074400104B5B6A13F0020FC7D0FFF7C1FE401BCA
:100754000228F5D90320D2E00025D3E70B4A136819
:1007640043F480731360FFF7B3FE0646074B1B6820
:1007740013F4807FCBD1FFF7ABFE801B6428F5D93F
:100784000320BCE000100240000042420070004020
:100794005F4A136A43F001031362E36833B3FFF75C
:1007A40097FE06465A4B1B6A13F0020F2FD1FFF730
:1007B4008FFE801B41F288339842F3D903209EE0D8
:1007C400052B09D0524B1A6A22F001021A621A6AE6
:1007D40022F004021A62E0E74D4B1A6A42F0040266
:1007E4001A621A6A42F001021A62D6E7FFF770FE33
:1007F4000646474B1B6A13F0020F08D0FFF768FE4A
:10080400801B41F288339842F3D9032077E0E5B99D
:10081400E369002B72D03E4A526802F00C02082AA7
:1008240056D0022B17D03B4B00221A66FFF750FE1E
:100834000446374B1B6813F0007F47D0FFF748FE90
:10084400001B0228F5D9032059E0314AD36923F06B
:100854008053D361DCE72F4B00221A66FFF738FE82
:1008640005462B4B1B6813F0007F06D0FFF730FEC4
:10087400401B0228F5D9032041E0236AB3F5803FE9
:100884001AD023494B6823F47413226A606A024322
:1008940013434B601F4B01221A66FFF719FE0446EF
:1008A4001B4B1B6813F0007F0ED1FFF711FE001BDA
:1008B4000228F5D9032022E0154A536823F40033B3
:1008C400A1680B435360DCE7002018E0002016E029
:1008D400012B16D00E4B5B6803F48031226A9142DF
:1008E40011D103F47013626A93420ED1002006E022
:1008F40001207047012002E0012000E0002002B046
:1009040070BD0120FBE70120F9E70120F7E700BFF4
:1009140000100240000042420F4B5B6803F00C02DF
:10092400082A01D00D487047C3F383420C49885C00
:1009340013F4803F0BD0084B5B68C3F34043094A70
:10094400D35C064A02FB00F0B0FBF3F07047064BA1
:1009540003FB00F0704700BF0010024000127A0051
:10096400841800088018000800093D00002800F0E1
:10097400A08070B50D460446524B1B6803F0070374
:100984008B420BD24F4A136823F007030B431360C7
:10099400136803F007038B4240F08D80236813F043
:1009A400020F17D013F0040F04D0474A536843F4DE
:1009B400E0635360236813F0080F04D0424A53687D
:1009C40043F460535360404A536823F0F003A16832
:1009D4000B435360236813F0010F31D06368012B7C
:1009E40020D0022B25D0384A126812F0020F64D0AE
:1009F40035494A6822F0030213434B60FFF768FD50
:100A04000646314B5B6803F00C036268B3EB820F5C
:100A140016D0FFF75DFD801B41F288339842F0D970
:100A2400032045E0284A126812F4003FE0D1012077
:100A34003EE0254A126812F0007FD9D1012037E048
:100A4400204B1B6803F00703AB420AD91D4A136805
:100A540023F007032B431360136803F00703AB422F
:100A64002DD1236813F0040F06D0174A536823F4DA
:100A7400E063E1680B435360236813F0080F07D069
:100A8400114A536823F46053216943EAC103536054
:100A9400FFF742FF0C4B5B68C3F303130B4AD35CB1
:100AA400D8400B4B18600B4B1868FFF7CDFC0020A7
:100AB40070BD012070470120FAE70120F8E701200A
:100AC400F6E700BF0020024000100240941800081E
:100AD400080000200400002070B582B00024A44661
:100AE400A8E0834DAB4214D00CD8A5F58015AB42D9
:100AF4000FD005F57025AB420BD0A5F58015AB42A0
:100B04001FD106E07B4DAB4203D005F58035AB42E7
:100B140017D18B68A3B1012B0DD04261082410E0DA
:100B2400CC680EE0CC6804340BE0CC68083408E0F0
:100B3400CC680C3405E00261082402E0002400E0E3
:100B44000424BEF1FF0F41D806464FEA8C023368F5
:100B54000F25954023EA050304FA02F21343336098
:100B64004B6813F0805F63D0634B9A6942F00102D3
:100B74009A619B6903F001030193019B4FEA9C0274
:100B8400951C5E4B53F825600CF00305AD000F2354
:100B9400AB4026EA03065A4B98421ED003F5806305
:100BA400984200F0838003F58063984200F08080CF
:100BB40003F5806398427DD003F5806398427BD02F
:100BC40003F58063984206D0062307E0061DACF1C6
:100BD40008029200BBE7052300E00023AB40334347
:100BE4000232464D45F822304B6813F4801F65D01D
:100BF400444A936843EA0E0393604B6813F4001F5E
:100C040062D0404AD36843EA0E03D3604B6813F4BE
:100C1400003F5FD03B4A536843EA0E0353604B687E
:100C240013F4803F5CD0374A136843EA0E03136021
:100C34000CF1010C0B6833FA0CF257D0012202FAC2
:100C44000CF203EA020E32EA0303F1D14B68122BD1
:100C54003FF647AF122B3FF674AF01A555F823F0CA
:100C6400170B0008250B00082F0B0008410B000888
:100C7400470B0008470B0008470B0008470B000808
:100C8400470B0008470B0008470B0008470B0008F8
:100C9400470B0008470B0008470B0008470B0008E8
:100CA400470B0008290B0008350B0008012395E7C2
:100CB400022393E7032391E704238FE7114A936800
:100CC40023EA0E03936098E70E4AD36823EA0E03DF
:100CD400D3609BE70B4A536823EA0E0353609EE7F5
:100CE400084A136823EA0E031360A1E702B070BD3B
:100CF40000002210000031100010024000000140EA
:100D040000080140000401400AB101617047090470
:100D140001617047002808DB0901C9B200F1604095
:100D240000F5614080F80013704700F00F000901DE
:100D3400C9B2014B1954704714ED00E000B500F03E
:100D44000700C0F1070CBCF1040F28BF4FF0040CDE
:100D5400031D062B0FD9C31E4FF0FF3E0EFA0CF0F5
:100D640021EA000199400EFA03FE22EA0E0241EA4A
:100D740002005DF804FB0023EEE70000074AD36895
:100D840023F4E0631B041B0C000200F4E060034343
:100D940043F0BF6343F40033D360704700ED00E0D9
:100DA40010B50446054BD868C0F30220FFF7C6FF10
:100DB40001462046FFF7AEFF10BD00BF00ED00E086
:100DC400002807DB00F01F02400901239340024A78
:100DD40042F82030704700BF00E100E00138B0F174
:100DE400807F0BD24FF0E0235861054AF02182F84E
:100DF40023100020986107221A6170470120704770
:100E040000ED00E030B4036A026A22F001020262DB
:100E14004268846924F0730C0C6844EA0C0423F0DF
:100E2400020C8B6843EA0C03114DA84203D005F56C
:100E34000065A84205D123F00803CD682B4323F0B5
:100E440004030B4DA84203D005F50065A84207D161
:100E540022F440724D6945EA020C8A6942EA0C02A6
:100E6400426084614A684263036230BC704700BFD9
:100E7400002C014030B4036A026A22F480720262D8
:100E84004268C46924F0730C0C6844EA0C0523F42A
:100E940000738C6843EA0423114CA04203D004F588
:100EA4000064A04206D123F40063CC6843EA04231F
:100EB40023F480630A4CA04203D004F50064A042EA
:100EC40007D122F440524C6942EA04128C6942EA86
:100ED40004124260C5614A68C263036230BC704751
:100EE400002C014030B4036A026A22F48052026288
:100EF4004468C26922F4E6420D6842EA052223F4FA
:100F040000538D6843EA0533094DA84203D005F523
:100F14000065A84204D124F480444D6944EA851450
:100F24004460C2614A680264036230BC704700BF17
:100F3400002C014010B4036A046A24F00104046222
:100F4400846924F0F00C4CEA021223F00A030B43E8
:100F54008261036210BC704710B4036A046A24F00F
:100F640010040462846924F4704C4CEA023223F0C5
:100F7400A00343EA01138261036210BC70478368D3
:100F840023F070030B4343F00703836070477047FB
:100F94007047704770477047704770B504460368E0
:100FA400DE681D6915F0020F10D016F0020F0DD087
:100FB4006FF002021A610123037703689B6913F03F
:100FC400030F5ED0FFF7E6FF0023237715F0040F2D
:100FD40012D016F0040F0FD023686FF004021A61C8
:100FE4000223237723689B6913F4407F4FD0204664
:100FF400FFF7D0FF0023237715F0080F12D016F067
:10100400080F0FD023686FF008021A6104232377B6
:101014002368DB6913F0030F40D02046FFF7BAFFC3
:101024000023237715F0100F12D016F0100F0FD0F5
:1010340023686FF010021A61082323772368DB69A1
:1010440013F4407F31D02046FFF7A4FF0023237719
:1010540015F0010F02D016F0010F2DD115F0800FFD
:1010640002D016F0800F2FD115F0400F02D016F0E9
:10107400400F31D115F0200F02D016F0200F33D1DC
:1010840070BDFFF786FF2046FFF785FF9CE72046EB
:10109400FFF77FFF2046FFF77EFFABE72046FFF711
:1010A40078FF2046FFF777FFBAE72046FFF771FF86
:1010B4002046FFF770FFC9E723686FF001021A6149
:1010C4002046FFF765FFC9E723686FF080021A61C5
:1010D400204600F0EEF9C7E723686FF040021A617A
:1010E4002046FFF759FFC5E723686FF020021A6115
:1010F400204600F0DDF9C3E70368284A904212D085
:1011040002F5006290420ED0B0F1804F0BD0A2F5F0
:101114009832904207D002F58062904203D002F5E3
:101124008062904203D123F070034A6813431B4A40
:10113400904212D002F5006290420ED0B0F1804F7E
:101144000BD0A2F59832904207D002F5806290420B
:1011540003D002F58062904203D123F44073CA683D
:10116400134323F080034A69134303608B68C3620B
:101174000B688362094B984203D003F500639842DD
:1011840001D10B69036301234361036913F0010F68
:1011940003D0036923F0010303617047002C01406D
:1011A40040B310B5044690F83D30F3B1022384F8FF
:1011B4003D30214651F8040BFFF79EFF012384F8CC
:1011C400463084F83E3084F83F3084F8403084F868
:1011D400413084F8423084F8433084F8443084F851
:1011E400453084F83D30002010BD80F83C3000F0DC
:1011F4008FFADBE70120704740B310B5044690F83E
:101204003D30F3B1022384F83D30214651F8040BFC
:10121400FFF772FF012384F8463084F83E3084F8E7
:101224003F3084F8403084F8413084F8423084F808
:10123400433084F8443084F8453084F83D3000204D
:1012440010BD80F83C30FFF7A2FEDBE701207047B9
:1012540030B4036A026A22F01002026244688269AE
:1012640022F4E6420D6842EA052223F020038D6849
:1012740043EA0513114DA84203D005F50065A842C1
:1012840006D123F08003CD6843EA051323F040031D
:101294000A4DA84203D005F50065A84207D124F4FD
:1012A40040644D6944EA85048D6944EA85044460D8
:1012B40082614A688263036230BC7047002C01403B
:1012C40090F83C30012B28D010B50446012380F857
:1012D4003C300C2A1CD8DFE802F0071B1B1B0C1B3C
:1012E4001B1B111B1B1B16000068FFF78BFD002046
:1012F4000FE00068FFF7ACFF00200AE00068FFF78A
:10130400B9FD002005E00068FFF7ECFD002000E0D7
:101314000120002384F83C3010BD0220704710B433
:10132400846824F47F4C42EA03220A4342EA0C0212
:10133400826010BC704790F83C30012B78D010B517
:101344000446012380F83C30022380F83D300268D3
:10135400936823F47F4323F0770393600B68602B37
:101364004CD023D8402B54D011D8202B03D00AD8EA
:101374000BB1102B05D119462068FFF700FE0020A1
:1013840028E0012026E0302BF5D0012022E0502B6C
:101394000AD1CA6849680068FFF7CCFD502120686B
:1013A400FFF7EDFD002015E0012013E0B3F5805FA9
:1013B4003AD0B3F5005F14D0702B37D1CB684A68AC
:1013C40089680068FFF7ABFF2268936843F07703EE
:1013D40093600020012384F83D30002384F83C30DE
:1013E40010BDCB684A6889680068FFF798FF2268D7
:1013F400936843F4804393600020EBE7CA6849682C
:101404000068FFF7A9FD60212068FFF7B8FD002000
:10141400E0E7CA6849680068FFF78CFD402120684E
:10142400FFF7ADFD0020D5E70020D3E70120D1E789
:101434000220704790F83C20012A34D010B40346AF
:10144400012280F83C20022280F83D200268506886
:10145400946820F0700C086840EA0C0050601A6828
:101464001248824212D000F5006082420ED0B2F1DE
:10147400804F0BD0A0F59830824207D000F58060F1
:10148400824203D000F58060824204D124F08004BB
:10149400496821439160012283F83D20002083F8AC
:1014A4003C0010BC70470220704700BF002C014074
:1014B400704770477047000000B587B0002302935F
:1014C400039304930593009301931648164A02600C
:1014D40047224260836042F21072C260036143613A
:1014E40080238361FFF75CFE90B94FF4805302932D
:1014F40002A90C48FFF71FFF68B90023009301936A
:1015040069460848FFF796FF40B907B05DF804FB49
:10151400FEF7ACFEE9E7FEF7A9FEEEE7FEF7A6FE4E
:10152400F3E700BF04010020002C014000B58FB098
:1015340000230A930B930C930D930893099301933F
:1015440002930393049305930693079320484FF063
:10155400804202604722426083606422C260036169
:1015640080238361FFF71CFE10BB4FF480530A9362
:101574000AA91748FFF7DFFEE8B91548FFF73CFE54
:10158400E0B900230893099308A91148FFF752FF13
:10159400B8B93023019332230293002203920592B7
:1015A40001A90B48FFF78CFE70B90FB05DF804FB7E
:1015B400FEF75CFED9E7FEF759FEDEE7FEF756FEBE
:1015C400DFE7FEF753FEE4E7FEF750FEEDE700BF6A
:1015D400BC00002000B58FB000230A930B930C933A
:1015E4000D93089309930193029303930493059332
:1015F400069307932848294A026047224260836081
:101604004FF6FF72C26003618361FFF7C9FD68BBD7
:101614004FF480530A930AA91F48FFF78CFE40BB7E
:101624001D48FFF7E9FD38BB00230893099308A977
:101634001948FFF7FFFE10BB0022019202920392A9
:10164400059201A91448FFF73BFED8B904220DEB1B
:1016540002011148FFF734FEB8B9082201A90E4867
:10166400FFF72EFEA0B90FB05DF804FBFEF7FEFDF8
:10167400CEE7FEF7FBFDD3E7FEF7F8FDD4E7FEF770
:10168400F5FDD9E7FEF7F2FDE0E7FEF7EFFDE4E74D
:10169400FEF7ECFDE7E700BF740000200004004003
:1016A40000B587B00023029303930493059300933A
:1016B40001931548154A026047224260836042F252
:1016C4001072C260036143618361FFF769FD90B9E1
:1016D4004FF48053029302A90B48FFF72CFE68B91C
:1016E40000230093019369460748FFF7A3FE40B91E
:1016F40007B05DF804FBFEF7B9FDE9E7FEF7B6FDB8
:10170400EEE7FEF7B3FDF3E72C00002000340140C0
:1017140000B585B00368264A93420BD0B3F1804FDD
:1017240013D0244A934224D0234A934234D005B0A0
:101734005DF804FB214B9A6942F400629A619B694B
:1017440003F400630093009BF1E703F50433DA69C3
:1017540042F00102DA61DB6903F001030193019BAA
:10176400002211461C20FFF71BFB1C20FFF728FB5F
:10177400DDE7124BDA6942F00202DA61DB6903F059
:1017840002030293029B002211461D20FFF708FB6F
:101794001D20FFF715FBCAE7084B9A6942F4005273
:1017A4009A619B6903F400530393039BBFE700BF53
:1017B400002C0140000400400034014000100240AD
:1017C400FFF778FE0B480C490C4A002302E0D4587A
:1017D400C4500433C4188C42F9D3094A094C002379
:1017E40001E013600432A242FBD300F017F8FEF7C5
:1017F40071FD7047000000200C000020AC180008A8
:101804000C0000204C010020FEE7034602449342F2
:1018140000D1704703F8011BF9E7000070B50026FA
:101824000C4D0D4B5B1B9C10A64209D1002600F009
:1018340019F80A4D0A4B5B1B9C10A64205D170BDDA
:1018440055F8043B98470136EEE755F8043B9847B2
:101854000136F2E7A4180008A4180008A418000828
:10186400A8180008F8B500BFF8BC08BC9E4670472D
:0C187400F8B500BFF8BC08BC9E467047E9
:101880000102000002030405060708090A0B0C0DFB
:101890000E0F101000000000000000000102030401
:0418A0000607080926
:0418A4004D020008E9
:0418A800250200080D
:0C18AC00010000001000000000127A0093
:04000005080017C513
:00000001FF
