:020000040800F2
:1000000000500020F10F0008050300080703000856
:10001000090300080B0300080D030008000000009E
:100020000000000000000000000000000F030008B6
:100030001103000800000000130300081503000866
:10004000391000083910000839100008391000086C
:10005000391000083910000839100008391000085C
:10006000391000083910000839100008391000084C
:10007000391000083910000839100008391000083C
:10008000391000083910000839100008391000082C
:10009000391000083910000839100008391000081C
:1000A000391000083910000839100008391000080C
:1000B00039100008391000083910000839100008FC
:1000C00039100008391000083910000839100008EC
:1000D00039100008391000083910000839100008DC
:1000E000391000083910000839100008000000001D
:1000F0000000000000000000000000000000000000
:0C01000000000000000000005FF808F1A3
:10010C000348044B834202D0034B03B1184770479A
:10011C000C0000200C000020000000000548064BDD
:10012C001B1AD90F01EBA301491002D0034B03B1E9
:10013C00184770470C0000200C0000200000000045
:10014C0010B5064C237843B9FFF7DAFF044B13B113
:10015C000448AFF300800123237010BD0C00002075
:10016C00000000009410000808B5054B1BB10549B0
:10017C000548AFF30080BDE80840FFF7CFBF00BFD4
:10018C0000000000100000209410000872B6FEE77A
:10019C0010B590B006AC28220021204600F047FF95
:1001AC000023019302930393049305930223069374
:1001BC0001230A9310230B93204600F08FFA60B9A9
:1001CC000F2301930021029103910491059101A841
:1001DC0000F0B6FC18B910B010BDFFF7D7FFFFF751
:1001EC00D5FF000008B500F02BFAFFF7D1FF00F0A7
:1001FC0013F800F029F84FF47A730D2204490548DE
:10020C0000F093F94FF4FA7000F03EFAF3E700BFF8
:10021C00AC1000082800002082B00A4B9A6942F00A
:10022C0020029A619A6902F020020092009A9A695F
:10023C0042F004029A619B6903F004030193019B51
:10024C0002B070470010024008B50A480A4B036020
:10025C004FF4E133436000238360C36003610C22DD
:10026C0042618361C36100F030F900B908BDFFF74A
:10027C008DFFFBE7280000200038014030B587B027
:10028C00002302930393049305930268184B9A423C
:10029C0001D007B030BD03F558439A6942F480424F
:1002AC009A619A6902F480420092009A9A6942F02B
:1002BC0004029A619B6903F004030193019B4FF4C0
:1002CC0000730293022303930323059302AD094C9D
:1002DC002946204600F010FD4FF480630293002362
:1002EC00039304932946204600F006FDD1E700BF96
:1002FC000038014000080140FEE7FEE7FEE7FEE79C
:10030C00FEE770477047704708B500F0ABF908BDC1
:10031C0082B00E4B9A6942F001029A619A6902F01E
:10032C0001020092009ADA6942F08052DA61DB69CC
:10033C0003F080530193019B054A536823F0E0635B
:10034C0043F00073536002B0704700BF00100240CE
:10035C0000000140026802F10C0353E8003F23F453
:10036C0090730C3242E800310029F3D1026802F19B
:10037C00140353E8003F23F00103143242E8003128
:10038C000029F3D1036B012B05D0202380F84230D8
:10039C00002303637047026802F10C0353E8003F2B
:1003AC0023F010030C3242E800310029F3D1ECE7C2
:1003BC0010B504460268136923F44053C1680B431B
:1003CC00136183680269134342691A430168CB685D
:1003DC0023F4B05323F00C031343CB60026853692E
:1003EC0023F4407381690B4353610268134B9A42A7
:1003FC0020D000F061FC024602EB820202EB82028A
:10040C0063689B00B2FBF3F20D48A0FB0231490973
:10041C00642303FB11231B013233A0FB03035B0991
:10042C0003F0F00202EB011203F00F0321681344F6
:10043C008B6010BD00F050FC0246DDE70038014037
:10044C001F85EB512DE9F04383B005460E46174648
:10045C009946DDF828802B681C6836EA04040CBF2A
:10046C0001240024BC4228D1B8F1FF3FF3D000F0A6
:10047C0005F9A0EB0900404523D8B8F1000F22D0B4
:10048C002B68DA6812F0040FE5D0802EE3D0402EF2
:10049C00E1D01A6812F0080FDDD0002401941A681C
:1004AC0001925B680193019B2846FFF753FF0823D9
:1004BC006B6485F84040012000E0002003B0BDE8EB
:1004CC00F0830320FAE70320F8E760B310B5044685
:1004DC0090F8413013B3242384F841302268D36858
:1004EC0023F40053D3602046FFF762FF22681369A0
:1004FC0023F4904313612268536923F02A03536158
:10050C002268D36843F40053D36000206064202336
:10051C0084F8413084F84230606310BD80F840307C
:10052C00FFF7ACFED7E7012070472DE9F04182B010
:10053C001E4690F84130202B56D104460D4690466D
:10054C00002955D00AB901204FE000234364212330
:10055C0080F8413000F092F80746A4F82480A4F803
:10056C002680A368B3F5805F02D04FF0000814E03A
:10057C0023692BB34FF000080FE0202384F841309F
:10058C00032032E038F8023B2268C3F308035360BF
:10059C00E28C92B2013A92B2E284E38C9BB293B1B8
:1005AC0000963B46002280212046FFF74BFF002897
:1005BC00E3D1002DE6D015F8012B23685A60E7E74C
:1005CC00A8460025E9E700963B460022402120463C
:1005DC00FFF738FF18B9202384F8413005E02023B9
:1005EC0084F84130032000E0022002B0BDE8F08125
:1005FC000120FAE710B504460E4B1A784FF47A73C3
:10060C00B3FBF2F30C4A1068B0FBF3F000F0D4FC2F
:10061C0068B90F2C01D901200AE0002221464FF0C5
:10062C00FF3000F0B9FC054B1C60002000E00120FD
:10063C0010BD00BF000000200800002004000020B6
:10064C0008B5074A136843F010031360032000F049
:10065C0091FC0F20FFF7CEFFFFF75AFE002008BDDC
:10066C0000200240034A1168034B1B780B441360B3
:10067C00704700BF7000002000000020014B18687C
:10068C00704700BF7000002038B50446FFF7F6FF36
:10069C000546B4F1FF3F02D0044B1B781C44FFF716
:1006AC00EDFF401BA042FAD338BD00BF0000002074
:1006BC0082B0084B1B68084AA2FB03235B0A00FBB1
:1006CC0003F3019300BF019B5A1E0192002BF9D139
:1006DC0002B0704708000020D34D6210002800F0D3
:1006EC00F18170B582B00446036813F0010F2CD071
:1006FC00994B5B6803F00C03042B1DD0964B5B6885
:10070C0003F00C03082B12D06368B3F5803F41D083
:10071C00002B55D103F1804303F504331A6822F4FE
:10072C0080321A601A6822F480221A6037E08A4BF1
:10073C005B6813F4803FE7D0874B1B6813F4003FD2
:10074C0003D06368002B00F0BF81236813F0020F05
:10075C0075D0814B5B6813F00C0F5FD07E4B5B68E0
:10076C0003F00C03082B54D02369002B00F08A8073
:10077C007A4B01221A60FFF781FF0546764B1B6806
:10078C0013F0020F75D1FFF779FF401B0228F5D942
:10079C0003209EE1704A136843F48033136063684E
:1007AC0043B3FFF76BFF05466B4B1B6813F4003F1D
:1007BC00CBD1FFF763FF401B6428F5D9032088E1F8
:1007CC00B3F5A02F09D0644B1A6822F480321A605A
:1007DC001A6822F480221A60E1E703F18043A3F542
:1007EC003C331A6842F480221A601A6842F4803250
:1007FC001A60D4E7FFF742FF0546574B1B6813F40A
:10080C00003FA2D0FFF73AFF401B6428F5D9032024
:10081C005FE1514B5B6813F4803FA5D14E4B1B68D5
:10082C0013F0020F03D02369012B40F04F814A4A89
:10083C00136823F0F803616943EAC103136023686A
:10084C0013F0080F33D0A369002B5CD0434B01226B
:10085C00C3F88024FFF712FF05463F4B5B6A13F089
:10086C00020F21D1FFF70AFF401B0228F5D9032004
:10087C002FE1394A136823F0F803616943EAC10395
:10088C001360DCE7354B00221A60FFF7F7FE0546D4
:10089C00314B1B6813F0020FD1D0FFF7EFFE401B5A
:1008AC000228F5D9032014E10120FFF701FF23688A
:1008BC0013F0040F00F09680274BDB6913F0805F78
:1008CC0034D1254BDA6942F08052DA61DB6903F0EE
:1008DC0080530193019B0125214B1B6813F4807FEE
:1008EC0026D0E368012B3DD0002B53D103F180437C
:1008FC0003F504331A6A22F001021A621A6A22F012
:10090C0004021A6233E0154B0022C3F88024FFF76F
:10091C00B5FE0546104B5B6A13F0020FC7D0FFF70C
:10092C00ADFE401B0228F5D90320D2E00025D3E709
:10093C000B4A136843F480731360FFF79FFE06465F
:10094C00074B1B6813F4807FCBD1FFF797FE801BFE
:10095C006428F5D90320BCE000100240000042429C
:10096C00007000405F4A136A43F001031362E368AE
:10097C0033B3FFF783FE06465A4B1B6A13F0020F84
:10098C002FD1FFF77BFE801B41F288339842F3D9BD
:10099C0003209EE0052B09D0524B1A6A22F001026B
:1009AC001A621A6A22F004021A62E0E74D4B1A6AC4
:1009BC0042F004021A621A6A42F001021A62D6E785
:1009CC00FFF75CFE0646474B1B6A13F0020F08D07C
:1009DC00FFF754FE801B41F288339842F3D9032071
:1009EC0077E0E5B9E369002B72D03E4A526802F019
:1009FC000C02082A56D0022B17D03B4B00221A6649
:100A0C00FFF73CFE0446374B1B6813F0007F47D0C2
:100A1C00FFF734FE001B0228F5D9032059E0314AB8
:100A2C00D36923F08053D361DCE72F4B00221A6685
:100A3C00FFF724FE05462B4B1B6813F0007F06D0F6
:100A4C00FFF71CFE401B0228F5D9032041E0236A66
:100A5C00B3F5803F1AD023494B6823F47413226AF0
:100A6C00606A024313434B601F4B01221A66FFF767
:100A7C0005FE04461B4B1B6813F0007F0ED1FFF7DD
:100A8C00FDFD001B0228F5D9032022E0154A53680E
:100A9C0023F40033A1680B435360DCE7002018E01B
:100AAC00002016E0012B16D00E4B5B6803F480314E
:100ABC00226A914211D103F47013626A93420ED1EF
:100ACC00002006E001207047012002E0012000E038
:100ADC00002002B070BD0120FBE70120F9E70120E6
:100AEC00F7E700BF00100240000042420F4B5B686A
:100AFC0003F00C02082A01D00D487047C3F383425F
:100B0C000C49885C13F4803F0BD0084B5B68C3F333
:100B1C004043094AD35C064A02FB00F0B0FBF3F0F9
:100B2C007047064B03FB00F0704700BF00100240FB
:100B3C0000127A00C0100008BC10000800093D002B
:100B4C00002800F0A08070B50D460446524B1B687F
:100B5C0003F007038B420BD24F4A136823F00703B1
:100B6C000B431360136803F007038B4240F08D8036
:100B7C00236813F0020F17D013F0040F04D0474A68
:100B8C00536843F4E0635360236813F0080F04D0F8
:100B9C00424A536843F460535360404A536823F00D
:100BAC00F003A1680B435360236813F0010F31D09D
:100BBC006368012B20D0022B25D0384A126812F022
:100BCC00020F64D035494A6822F0030213434B608C
:100BDC00FFF754FD0646314B5B6803F00C0362686B
:100BEC00B3EB820F16D0FFF749FD801B41F288331F
:100BFC009842F0D9032045E0284A126812F4003FCD
:100C0C00E0D101203EE0254A126812F0007FD9D1D4
:100C1C00012037E0204B1B6803F00703AB420AD9D5
:100C2C001D4A136823F007032B431360136803F06A
:100C3C000703AB422DD1236813F0040F06D0174ADB
:100C4C00536823F4E063E1680B435360236813F0AB
:100C5C00080F07D0114A536823F46053216943EA03
:100C6C00C1035360FFF742FF0C4B5B68C3F30313E4
:100C7C000B4AD35CD8400B4B18600B4B1868FFF732
:100C8C00B9FC002070BD012070470120FAE701205B
:100C9C00F8E70120F6E700BF0020024000100240F8
:100CAC00D81000080800002004000020014B186830
:100CBC00704700BF0800002008B5FFF7F7FF044B92
:100CCC005B68C3F30223034AD35CD84008BD00BF62
:100CDC0000100240D010000808B5FFF7E7FF044BE6
:100CEC005B68C3F3C223034AD35CD84008BD00BF82
:100CFC0000100240D010000870B582B00024A44649
:100D0C009EE07C4DAB4214D00CD8A5F58015AB42BF
:100D1C000FD005F57025AB420BD0A5F58015AB4275
:100D2C001FD106E0744DAB4203D005F58035AB42C4
:100D3C0017D18B68A3B1012B0DD04261082410E0B0
:100D4C00CC680EE0CC6804340BE0CC68083408E0C6
:100D5C00CC680C3405E00261082402E0002400E0B9
:100D6C000424BEF1FF0F37D806464FEA8C023368D5
:100D7C000F25954023EA050304FA02F2134333606E
:100D8C004B6813F0805F59D05C4B9A6942F00102BA
:100D9C009A619B6903F001030193019B4FEA9C024A
:100DAC00951C574B53F825600CF00305AD000F2331
:100DBC00AB4026EA0306534B984214D003F58063EC
:100DCC00984279D003F58063984277D003F580631D
:100DDC00984206D0042307E0061DACF108029200ED
:100DEC00C5E7032300E00023AB4033430232444DFC
:100DFC0045F822304B6813F4801F61D0424A936847
:100E0C0043EA0E0393604B6813F4001F5ED03E4A16
:100E1C00D36843EA0E03D3604B6813F4003F5BD0F6
:100E2C00394A536843EA0E0353604B6813F4803F0E
:100E3C0058D0354A136843EA0E0313600CF1010CC9
:100E4C000B6833FA0CF253D0012202FA0CF203EACB
:100E5C00020E32EA0303F1D14B68122B3FF651AF6D
:100E6C00122B3FF67EAF01A555F823F03F0D00087D
:100E7C004D0D0008570D0008690D00086F0D000896
:100E8C006F0D00086F0D00086F0D00086F0D000846
:100E9C006F0D00086F0D00086F0D00086F0D000836
:100EAC006F0D00086F0D00086F0D00086F0D000826
:100EBC00510D00085D0D0008012395E7022393E70F
:100ECC00114A936823EA0E0393609CE70E4AD36899
:100EDC0023EA0E03D3609FE70B4A536823EA0E0301
:100EEC005360A2E7084A136823EA0E031360A5E7D0
:100EFC0002B070BD00002210000031100010024042
:100F0C00000001400008014000040140002808DBFB
:100F1C000901C9B200F1604000F5614080F800138E
:100F2C00704700F00F000901C9B2014B195470470A
:100F3C0014ED00E000B500F00700C0F1070CBCF1A7
:100F4C00040F28BF4FF0040C031D062B0FD9C31E32
:100F5C004FF0FF3E0EFA0CF021EA000199400EFA18
:100F6C0003FE22EA0E0241EA02005DF804FB0023B4
:100F7C00EEE70000074AD36823F4E0631B041B0C64
:100F8C00000200F4E060034343F0BF6343F400331A
:100F9C00D360704700ED00E010B50446054BD868EF
:100FAC00C0F30220FFF7C6FF01462046FFF7AEFF55
:100FBC0010BD00BF00ED00E00138B0F1807F0BD216
:100FCC004FF0E0235861054AF02182F823100020ED
:100FDC00986107221A6170470120704700ED00E00C
:100FEC0070470000FFF7FCFF0B480C490C4A00232C
:100FFC0002E0D458C4500433C4188C42F9D3094AC3
:10100C00094C002301E013600432A242FBD300F030
:10101C0017F8FFF7E7F87047000000200C000020DD
:10102C00F01000080C00002074000020FEE70346BE
:10103C000244934200D1704703F8011BF9E700000A
:10104C0070B500260C4D0D4B5B1B9C10A64209D1B4
:10105C00002600F019F80A4D0A4B5B1B9C10A642A7
:10106C0005D170BD55F8043B98470136EEE755F8AD
:10107C00043B98470136F2E7E8100008E810000836
:10108C00E8100008EC100008F8B500BFF8BC08BC6C
:10109C009E467047F8B500BFF8BC08BC9E4670472A
:1010AC0068656C6C6F20776F726C64212100000096
:1010BC000102000002030405060708090A0B0C0DC7
:1010CC000E0F1010000000000102030400000000CD
:0C10DC00000000000102030406070809E0
:0410E8007501000886
:0410EC004D010008AA
:0C10F000010000001000000000127A0057
:0400000508000FF1EF
:00000001FF
