:10000300D6D0CEC4B2E2CAD400BDF0D2DDB3BFB500
:10001300E7D7D300BBB6D3ADC4FA00D2F2CEAAD78A
:10002300A8D7A200CBF9D2D4D7A8D2B500D6D00195
:10003300000100010001003FF821082108210821E7
:100043000821083FF821080100010001000100BD5B
:10005300F00100010002800440082010102FE8C1C5
:100063000601003FF80100111009100920FFFE00EE
:1000730000D2DD0100410021F0221004200FFCE436
:1000830044244427FC20A02130212A2222241E506C
:10009300008FFEB3BF1FF010101FF010101FF000F1
:1000A300003FFC20002FF820003FFE29082890483D
:1000B300604A188C06CEC4020001000100FFFE1046
:1000C3001010100820082004400280010002800460
:1000D3004008203018C006CFD400001FF0101010C5
:1000E300101FF0101010101FF00440444424441457
:1000F3004814500440FFFE0000CABE00003FF80051
:1001030000000000000000FFFE01000100111011BB
:100113000821044102810205000200B2E200042723
:10012300C414441454855445544554155415542546
:1001330054E55421042284224424140808CAD40018
:100143002820241024102007FE0020F02017E0119F
:100153002011101110151019CA170A02060002B552
:10016300E70100010001003FF82108210821083FB1
:10017300F82108210821083FF8210A0102010200A1
:10018300FED7D300007FF80010002000400180015B
:1001930000FFFE0100010001000100010001000554
:1001A300000200BBB600800080FC8004FC0504490B
:1001B300082A401440104028A024A04510811002B2
:1001C3000804040802D3AD00002080133C1224026B
:1001D300240224F2241224122412B413281220100D
:1001E30020282047FE0000C4FA0900090011FC3250
:1001F3000454489950114812441444114010800289
:10020300005104511290120FF0D2F200007FFC4013
:10021300044104410441045FF441044284424444E0
:10022300244814501440047FFC4004CEAA0100214A
:10023300001100110001007FF8020802080288047F
:1002430048044808081008200840508020D7A80117
:1002530000010001003FF802000200FFFE04000855
:10026300000FF0001000200640018000400020D263
:10027300B504400440044004404444244424481446
:1002830048145014600440044004400440FFFE003E
:1002930000CBF90208071C38E0208020803E802232
:1002A300FE228822883E88208820884108410882CF
:1002B300080408D2D40010041022102110211020A9
:1002C3001020102020202020202440285030882176
:1002D3000402020402D7A200802040100017FC8011
:1002E3004040404040104013FC2040E0402040206C
:1002F3004020402FFE0000A1A100000000000000EC
:1003030000000000000000000000000000000000EA
:09031300000000000000000000E1
:07092B001209AA7F787E008B
:10093200E4FDFCC3ED9FEC9E5015E4FBFA0BBB00FB
:0F094200010AEB64FA4A70F50DBD00010C80E468
:010951002283
:10095200E4FE7E08EF30E704D2B18002C2B1C2B039
:08096200D2B0EF25E0FFDEEC4E
:01096A00226A
:0A09AA00C2B4C2B3120952D2B42243
:0C099100E4F51FC2B4D2B3120952D2B474
:01099D002237
:04096B00AD07AC0622
:10096F00E4F517C2B4D2B3AF04120952AF0512099E
:03097F0052D2B49D
:010982002252
:0E098300C2B27F647E00120932D2B202093283
:1004E80012098312092E7F1112092B7F2912092B59
:1004F8007FFE1209AA7FFE1209AA7FEF1209AA7FBE
:10050800B01209AA7FC01209917FB21209AA7F24EA
:100518001209917FB31209AA7F031209917FB712BA
:1005280009AA7F011209917FB61209AA7F19120937
:10053800917FAC1209AA7FDB1209917FAB1209AA3D
:100548007F0F1209917F3A1209AA7F051209917F3C
:10055800B41209AA7F041209917FA81209AA7F0C74
:100568001209917FB81209AA7F081209917FED122A
:1005780009AA7F031209917FEA1209AA7F9F12092B
:10058800917FC61209AA7F2A1209917FC71209AA68
:100598007F101209917FF01209AA7F091209917F31
:1005A800351209917F2A1209917F4A1209917FA970
:1005B8001209917F391209917F351209917F6012D2
:1005C8000991E4FF1209917F141209917F0A120917
:1005D800917F161209917F101209917F1F120991BC
:1005E8007FF11209AA7F131209917F241209917FC2
:1005F800551209917F3C1209917FC61209917F1605
:100608001209917F3F1209917F601209917F0812A8
:1006180009917F061209917F0D1209917F1F120916
:0B062800917F1C1209917F10020991C4
:10085D008E178F188C198D1A7F2A1209AAE4FF1290
:10086D000991E5182418FF120991E4FF120991EB83
:10087D002418FF1209917F2B1209AAE4FF12099186
:10088D00AF1A120991E4FF120991AF1E1209917F5F
:04089D002C0209AA76
:1008A100FE7C00E523252BFDEC3522FCAB25AA249B
:1008B1008E308F318A328B33E5312401FBE43530C0
:1008C100FAED2401F51EE43CF51D12085DAF33AECF
:0408D1003202096B7B
:040901008E088F09C4
:10090500751D00751E9F7B4F7A00E4FDFCFFFE12EE
:10091500085DE4FBE4FAAF09AE0812096B0ABA50A8
:05092500F50BBBA0EF83
:01092A0022AA
:060633007C007F087E0040
:0C0639008E088F098C0A8D0B8A0C8B0D2B
:10064500751500751616AB10AA11A91212080BFF25
:10065500700302077BC39480500302076DE4F51312
:10066500F514C3E5149516E51395154003020754D3
:10067500AB10AA11A91212080BFF90003075F022D9
:10068500E514120851E51375F022A42583F583E4DA
:10069500936F6003020749900001120824FF900040
:1006A5003175F022E514120851E51375F022A425E1
:1006B50083F583E4936F6003020749E509240FFB83
:1006C500E43508FAE50B240FF51EE4350AF51DADF2
:1006D5000BAC0AAF09AE0812085DE4FBE4FA900022
:1006E5003275F022E514120851E51375F022A425A0
:1006F50083F583E5822BF582E43583F583E493FD69
:100705003395E0FC74807E00A802088006CEA2E73F
:1007150013CE13D8F8FFEE5CFEEF5D4E6009AF0D0A
:10072500AE0C12096B8013E50D650F7004E50C65C1
:100735000E6007AF0FAE0E12096B0ABA08A00BEBDD
:10074500642070980514E514700205130206677499
:10075500022512F512E43511F51174102509F50974
:10076500E43508F50802064B74012512F512E43547
:0607750011F51102064B14
:01077B00225B
:0C031C008E208F218C228D238A248B25BB
:1003280085202E85212FAB28AA29A92A12080BFF80
:1003380070030204E7C3948050030204D9E4F52C47
:10034800F52DAB28AA29A92A12080BFF90003075B1
:10035800F022E52D120851E52C75F022A42583F52D
:1003680083E4936F60030204AC900001120824FF39
:1003780090003175F022E52D120851E52C75F02218
:10038800A42583F583E4936F60030204ACF52BE4A2
:10039800F990003275F022E52D120851E52C75F020
:1003A80022A42583F58375F002E52B120851E49306
:1003B800FD3395E0FC74807E00A801088006CEA27B
:1003C800E713CE13D8F8FFEE5CFEEF5D4E600EE942
:1003D8007E002521FFEE35201208A18028E525653D
:1003E800277004E5246526601CE97E002521FFEEC0
:1003F8003520FE7C00E523252BFDEC3522FCAB27C0
:10040800AA261208B109E964087086E4F990003355
:1004180075F022E52D120851E52C75F022A42583EC
:10042800F58375F002E52B120851E493FD3395E04E
:10043800FC74807E00A801088006CEA2E713CE13C4
:10044800D8F8FFEE5CFEEF5D4E6015E9FF7E0025F3
:1004580021CFEE3520CF2408CF34001208A1802FF9
:10046800E52565277004E52465266023E9FF7E00FD
:100478002521CFEE3520CF2408CF3400FE7C00E5BF
:1004880023252BFDEC3522FCAB27AA261208B1093F
:10049800E964086003020415052BE52BC39410508A
:1004A80003020397052DE52D7002052CC39432E550
:1004B8002C9400500302034A7402252AF52AE435D5
:1004C80029F52974102521F521E43520F5200203AA
:0F04D8002E7401252AF52AE43529F52902032E71
:0104E70022F2
:10077C0074FFFFFE120901750EFF750FE07510FF77
:10078C007511007512037B1F7A007D0A12063374F3
:10079C00FFF50EF50FF51075110075120C7B007A34
:1007AC00F87D1E7C00E4FFFE12063974FFF50EF591
:1007BC000FF5107511007512177B1F7A007D327CB6
:1007CC00007F107E00120639750E00750F1F751014
:1007DC00FF75110075121E74FFFBFA7D461206336D
:1007EC00750E00750F1F7510FF75110075122774AB
:0F07FC00FFFBFA7D5A1206337FB47E00020932EA
:1008D50053B1FB43B2041204E8D2B57F007EF8128F
:1008E50009017FE07E071209017F1F7E00120901C1
:0C08F50012077C7F5E7E0112093280DF5A
:0300000002099E54
:0C099E00787FE4F6D8FD7581330208D59F
:10080B00BB010689828A83E0225002E722BBFE02EB
:09081B00E32289828A83E493221E
:10082400BB010CE58229F582E5833AF583E0225089
:1008340006E92582F8E622BBFE06E92582F8E222D3
:0D084400E58229F582E5833AF583E49322ED
:0C085100A42582F582E5F03583F58322B2
:00000001FF
