:020000040800F2
:1000000000C0002071180008310500083305000801
:100010003505000837050008390500080000000014
:100020000000000000000000000000003B05000888
:100030003D050008000000003F05000841050008DC
:10004000B9180008B9180008B9180008B91800084C
:10005000B9180008B9180008B9180008B91800083C
:10006000B9180008B9180008B9180008B91800082C
:10007000B9180008B9180008B9180008B91800081C
:10008000B9180008B9180008B9180008B91800080C
:10009000B9180008B9180008B9180008B9180008FC
:1000A000B9180008B9180008B9180008B9180008EC
:1000B00049050008B9180008B9180008B91800085F
:1000C000B9180008B9180008B9180008B9180008CC
:1000D000B9180008B9180008B9180008B9180008BC
:1000E000B9180008B9180008B9180008B9180008AC
:1000F000B9180008B9180008B9180008B91800089C
:10010000B9180008B9180008B9180008B91800088B
:10011000B9180008B9180008B9180008B91800087B
:10012000B9180008B9180008B9180008B91800086B
:1001300000000000000000000000000000000000BF
:1001400000000000000000000000000000000000AF
:10015000000000000000000000000000000000009F
:10016000000000000000000000000000000000008F
:10017000000000000000000000000000000000007F
:10018000000000000000000000000000000000006F
:10019000000000000000000000000000000000005F
:1001A000000000000000000000000000000000004F
:1001B000000000000000000000000000000000003F
:1001C000000000000000000000000000000000002F
:1001D000000000000000000000000000000000001F
:0401E0005FF8E0F1F3
:1001E40010B5054C237833B9044B13B10448AFF36D
:1001F40000800123237010BD0C00002000000000CB
:100204001419000808B5034B1BB103490348AFF3A5
:10021400008008BD00000000100000201419000830
:10022400037F042B00D0704710B5044603681A6995
:10023400144B1A600368DA68134B1A60082100F043
:100244006DFA124B186023681A6912F0080F05D072
:10025400DA6B0F4B1A600F4B00221A6023681A697D
:1002640012F0010F0DD01A69064B1A6022686FF064
:1002740001011161226812691A60064A1368013388
:10028400136010BD2C00002028000020380000203E
:10029400300000203400002072B6FEE700B591B0B3
:1002A4002822002106A801F02BFB002301930293CE
:1002B400039304930593012206924FF4803307932A
:1002C4000A9202220D920E9306A800F059FE88B9F4
:1002D4000F23019302230293A02303934FF480631B
:1002E40004930021059101A801F07CF820B911B014
:1002F4005DF804FBFFF7D0FFFFF7CEFF08B500F071
:1003040005FEFFF7CBFF00F013F800F09BF8074C55
:100314000821204600F0F6FC0C21204600F078FC71
:100324002268D36823F00103D360FEE73C00002079
:1003340082B00A4B9A6942F020029A619A6902F0EB
:1003440020020092009A9A6942F004029A619B6921
:1003540003F004030193019B02B0704700100240B4
:1003640010B586B0002302930393049305930368A6
:10037400B3F1804F01D006B010BD03F50433DA6940
:1003840042F00102DA61DA6902F001020092009A95
:100394009A6942F004029A619B6903F00403019391
:1003A400019B4FF40043029302240394059402A991
:1003B4000A4801F0CDF80A4A536823F4407343F025
:1003C400E06343F480735360002221461C2001F053
:1003D400F1F91C2001F026FACDE700BF0008014026
:1003E4000000014000B587B00023029303930493F7
:1003F40005930368B3F1804F02D007B05DF804FBA6
:1004040003F504339A6942F004029A619B6903F08C
:1004140004030193019B0C2302930223039305938A
:1004240002A9064801F094F8054A536823F440737E
:1004340043F0E06343F480735360DEE70008014057
:100444000000014000B58FB000230A930B930C9376
:100454000D930893099301930293039304930593D3
:100464000693079330484FF08042026044F62062BE
:10047400426083600A22C26003618023836100F0CA
:100484006DFA00283DD14FF480530A930AA92648F7
:1004940000F02FFB002837D1234800F08BFA002806
:1004A40035D100230893099308A91F4800F0C8FC1C
:1004B40000282FD1102301930123029300230393D7
:1004C4000593082201A9184800F0D8FA28BB164859
:1004D4000268D36943F00803D361302301930923ED
:1004E40002930C2201A900F0C9FAC8B90E480268A7
:1004F400D36943F40063D361FFF774FF0FB05DF871
:1005040004FBFFF7C9FEBEE7FFF7C6FEC4E7FFF72B
:10051400C3FEC6E7FFF7C0FECCE7FFF7BDFED6E794
:10052400FFF7BAFEE2E700BF3C000020FEE7FEE76B
:10053400FEE7FEE7FEE770477047704708B500F036
:10054400F7FC08BD08B5024800F005F908BD00BF76
:100554003C00002082B00E4B9A6942F001029A617D
:100564009A6902F001020092009ADA6942F080521C
:10057400DA61DB6903F080530193019B054A5368F8
:1005840023F0E06343F00073536002B0704700BF90
:10059400001002400000014030B4036A026A22F0F5
:1005A400010202624268846924F073040D682C43DA
:1005B40023F0020C8B6843EA0C03104DA84203D0CD
:1005C40005F50065A84205D123F00803CD682B4347
:1005D40023F00403094DA84203D005F50065A842A1
:1005E40005D122F440724D692A438D692A43426041
:1005F40084614A684263036230BC7047002C014046
:1006040030B4036A026A22F4807202624268C469E6
:1006140024F0730C0C6844EA0C0523F400738C6812
:1006240043EA0423114CA04203D004F50064A04221
:1006340006D123F40063CC6843EA042323F48063E3
:100644000A4CA04203D004F50064A04207D122F46E
:1006540040524C6942EA04128C6942EA0412426034
:10066400C5614A68C263036230BC7047002C014014
:1006740030B4036A026A22F4805202624468C26996
:1006840022F4E6420D6842EA052223F400538D6801
:1006940043EA0533094DA84203D005F50065A84295
:1006A40004D124F480444D6944EA85144460C26151
:1006B4004A680264036230BC704700BF002C0140EA
:1006C40010B4036A046A24F001040462846924F007
:1006D400F00C4CEA021223F00A030B43826103621A
:1006E40010BC704710B4036A046A24F01004046256
:1006F400846924F4704C4CEA023223F0A00343EAE8
:1007040001138261036210BC7047836823F0700395
:100714000B4343F007038360704770470C2914D8D8
:10072400DFE801F0071313130A1313130D13131344
:1007340010000368586B70470368986B7047036830
:10074400D86B70470368186C704700207047704777
:1007540070477047704770B504460368DE681D69CA
:1007640015F0020F10D016F0020F0DD06FF0020238
:100774001A610123037703689B6913F0030F5ED0AA
:10078400FFF7E6FF0023237715F0040F12D016F0CD
:10079400040F0FD023686FF004021A610223237739
:1007A40023689B6913F4407F4FD02046FFF7D0FFA6
:1007B4000023237715F0080F12D016F0080F0FD07E
:1007C40023686FF008021A61042323772368DB6926
:1007D40013F0030F40D02046FFF7BAFF002323771E
:1007E40015F0100F12D016F0100F0FD023686FF011
:1007F40010021A61082323772368DB6913F4407F0E
:1008040031D02046FFF7A4FF0023237715F0010F12
:1008140002D016F0010F2DD115F0800F02D016F082
:10082400800F2FD115F0400F02D016F0400F31D1B8
:1008340015F0200F02D016F0200F33D170BDFFF752
:10084400EFFC2046FFF785FF9CE72046FFF7E8FC16
:100854002046FFF77EFFABE72046FFF7E1FC20468A
:10086400FFF777FFBAE72046FFF7DAFC2046FFF7E9
:1008740070FFC9E723686FF001021A612046FFF791
:1008840066FFC9E723686FF080021A61204600F012
:1008940016FBC7E723686FF040021A612046FFF792
:1008A40059FFC5E723686FF020021A61204600F063
:1008B40005FBC3E70368284A904212D002F50062A0
:1008C40090420ED0B0F1804F0BD0A2F598329042F6
:1008D40007D002F58062904203D002F58062904214
:1008E40003D123F070034A6813431B4A904212D089
:1008F40002F5006290420ED0B0F1804F0BD0A2F509
:100904009832904207D002F58062904203D002F5FB
:100914008062904203D123F44073CA68134323F0E6
:1009240080034A69134303608B68C3620B68836264
:10093400094B984203D003F50063984201D10B6937
:10094400036301234361036913F0010F03D00369B7
:1009540023F0010303617047002C014040B310B53C
:10096400044690F83D30F3B1022384F83D3021462B
:1009740051F8040BFFF79EFF012384F8463084F8F6
:100984003E3084F83F3084F8403084F8413084F8B5
:10099400423084F8433084F8443084F8453084F895
:1009A4003D30002010BD80F83C30FFF7D9FCDBE778
:1009B4000120704740B310B5044690F83D30F3B1C0
:1009C400022384F83D30214651F8040BFFF772FFEF
:1009D400012384F8463084F83E3084F83F3084F8AC
:1009E400403084F8413084F8423084F8433084F84D
:1009F400443084F8453084F83D30002010BD80F840
:100A04003C30FFF78AFEDBE70120704730B4036A0D
:100A1400026A22F0100202624468826922F4E64209
:100A24000D6842EA052223F020038D6843EA05138A
:100A3400114DA84203D005F50065A84206D123F064
:100A44008003CD6843EA051323F040030A4DA8420E
:100A540003D005F50065A84207D124F440644D692C
:100A640044EA85048D6944EA8504446082614A68E5
:100A74008263036230BC7047002C014090F83C3024
:100A8400012B28D010B50446012380F83C300C2AF1
:100A94001CD8DFE802F0071B1B1B0C1B1B1B111BC4
:100AA4001B1B16000068FFF777FD00200FE00068AD
:100AB400FFF7ACFF00200AE00068FFF7A1FD00206B
:100AC40005E00068FFF7D4FD002000E001200023CA
:100AD40084F83C3010BD0220704710B4846824F4BC
:100AE4007F4C42EA03220A4342EA0C02826010BCB1
:100AF400704790F83C30012B78D010B504460123A0
:100B040080F83C30022380F83D300268936823F477
:100B14007F4323F0770393600B68602B4CD029D874
:100B2400402B54D00CD9502B22D1CA684968006894
:100B3400FFF7C6FD50212068FFF7E7FD002005E020
:100B4400202B0DD009D9302B0AD00120012384F8A1
:100B54003D30002384F83C3010BD0BB1102B05D17F
:100B640019462068FFF7D1FD0020EFE70120EDE7EB
:100B74000120EBE7B3F5805F34D0B3F5005F0CD10F
:100B8400CB684A6889680068FFF7A7FF2268936802
:100B940043F4804393600020D8E7702B24D1CB68C2
:100BA4004A6889680068FFF798FF2268936843F0F1
:100BB400770393600020C9E7CA6849680068FFF7B3
:100BC40091FD60212068FFF7A0FD0020BEE7CA6800
:100BD40049680068FFF774FD40212068FFF795FD20
:100BE4000020B3E70020B1E70120AFE702207047FF
:100BF40001F01F01012303FA01FC036A23EA0C0339
:100C04000362036A02FA01F10B43036270470000B6
:100C140010B50446084600293AD194F83E30DBB2B8
:100C2400013B18BF0123002B66D1002849D10223C0
:100C340084F83E30012201462068FFF7D9FF23687B
:100C44002F4A934203D002F50062934203D15A6CB7
:100C540042F400425A642368294A934241D002F57F
:100C6400006293423DD0B3F1804F3AD0A2F598325E
:100C7400934236D002F58062934232D002F580620C
:100C840093422ED01A6842F001021A60002032E02A
:100C9400042908D008290DD094F84130DBB2013B77
:100CA40018BF0123BFE794F83F30DBB2013B18BF04
:100CB4000123B8E794F84030DBB2013B18BF0123AD
:100CC400B1E7042805D0082807D0022384F841306E
:100CD400B0E7022384F83F30ACE7022384F84030C5
:100CE400A8E79A6802F00702062A07D01A6842F0B9
:100CF40001021A60002010BD0120FCE70020FAE781
:100D0400002C014010B504460846C1B994F83E30A1
:100D1400DBB2013B18BF0123002B40F0898038BBB4
:100D2400022384F83E300C2800F28480DFE800F0CF
:100D34003082828263828282698282826F00042985
:100D440008D008290DD094F84130DBB2013B18BF1C
:100D54000123E1E794F83F30DBB2013B18BF0123E4
:100D6400DAE794F84030DBB2013B18BF0123D3E744
:100D7400042805D0082807D0022384F84130D2E79C
:100D8400022384F83F30CEE7022384F84030CAE7D8
:100D94002268D36843F00203D3600122014620682D
:100DA400FFF726FF2368254A934203D002F5006229
:100DB400934203D15A6C42F400425A6423681F4A96
:100DC40093422AD002F50062934226D0B3F1804FB9
:100DD40023D0A2F5983293421FD002F58062934249
:100DE4001BD002F58062934217D01A6842F00102C8
:100DF4001A6000201FE02268D36843F00403D36024
:100E0400CBE72268D36843F00803D360C5E72268C0
:100E1400D36843F01003D360BFE79A6802F0070277
:100E2400062A09D01A6842F001021A60002002E082
:100E3400012000E0012010BD0020FCE7002C01404F
:100E440090F83C30012B34D010B4012380F83C30AE
:100E5400022380F83D3003685A689C6822F0700CC5
:100E64000A6842EA0C025A600368134A934212D099
:100E740002F5006293420ED0B3F1804F0BD0A2F57D
:100E84009832934207D002F58062934203D002F570
:100E94008062934204D124F080044A6814439C6025
:100EA400012380F83D30002380F83C30184610BC04
:100EB40070470220704700BF002C01407047704704
:100EC40010B504460E4B18784FF47A73B3FBF0F365
:100ED4000C4A1068B0FBF3F000F0B2FC68B90F2CB8
:100EE40001D901200AE0002221464FF0FF3000F032
:100EF40061FC054B1C60002000E0012010BD00BF18
:100F040000000020080000200400002008B5074A63
:100F1400136843F010031360032000F039FC002031
:100F2400FFF7CEFFFFF716FB002008BD00200240AC
:100F3400034A1168034B1B780B441360704700BFCE
:100F44008400002000000020014B1868704700BF97
:100F54008400002082B0084B1B68084AA2FB0323CC
:100F64005B0A00FB03F3019300BF019B5A1E01922D
:100F7400002BF9D102B0704708000020D34D621055
:100F8400002800F0F18170B582B00446036813F0C4
:100F9400010F2CD0994B5B6803F00C03042B1DD07C
:100FA400964B5B6803F00C03082B12D06368B3F50F
:100FB400803F41D0002B55D103F1804303F5043326
:100FC4001A6822F480321A601A6822F480221A60A5
:100FD40037E08A4B5B6813F4803FE7D0874B1B688C
:100FE40013F4003F03D06368002B00F0BF81236833
:100FF40013F0020F75D0814B5B6813F00C0F5FD0B8
:101004007E4B5B6803F00C03082B54D02369002B40
:1010140000F08A807A4B01221A60FFF795FF05469B
:10102400764B1B6813F0020F75D1FFF78DFF401B41
:101034000228F5D903209EE1704A136843F48033F3
:101044001360636843B3FFF77FFF05466B4B1B6870
:1010540013F4003FCBD1FFF777FF401B6428F5D989
:10106400032088E1B3F5A02F09D0644B1A6822F459
:1010740080321A601A6822F480221A60E1E703F1D0
:101084008043A3F53C331A6842F480221A601A683C
:1010940042F480321A60D4E7FFF756FF0546574BF7
:1010A4001B6813F4003FA2D0FFF74EFF401B6428D7
:1010B400F5D903205FE1514B5B6813F4803FA5D160
:1010C4004E4B1B6813F0020F03D02369012B40F031
:1010D4004F814A4A136823F0F803616943EAC10364
:1010E4001360236813F0080F33D0A369002B5CD07E
:1010F400434B0122C3F88024FFF726FF05463F4BEC
:101104005B6A13F0020F21D1FFF71EFF401B022878
:10111400F5D903202FE1394A136823F0F8036169F4
:1011240043EAC1031360DCE7354B00221A60FFF782
:101134000BFF0546314B1B6813F0020FD1D0FFF7AC
:1011440003FF401B0228F5D9032014E10120FFF717
:1011540001FF236813F0040F00F09680274BDB692E
:1011640013F0805F34D1254BDA6942F08052DA61A2
:10117400DB6903F080530193019B0125214B1B681C
:1011840013F4807F26D0E368012B3DD0002B53D18C
:1011940003F1804303F504331A6A22F001021A6250
:1011A4001A6A22F004021A6233E0154B0022C3F8D3
:1011B4008024FFF7C9FE0546104B5B6A13F0020F4B
:1011C400C7D0FFF7C1FE401B0228F5D90320D2E0A7
:1011D4000025D3E70B4A136843F480731360FFF7C9
:1011E400B3FE0646074B1B6813F4807FCBD1FFF791
:1011F400ABFE801B6428F5D90320BCE0001002403C
:1012040000004242007000405F4A136A43F0010349
:101214001362E36833B3FFF797FE06465A4B1B6A23
:1012240013F0020F2FD1FFF78FFE801B41F288339A
:101234009842F3D903209EE0052B09D0524B1A6A39
:1012440022F001021A621A6A22F004021A62E0E72A
:101254004D4B1A6A42F004021A621A6A42F0010201
:101264001A62D6E7FFF770FE0646474B1B6A13F077
:10127400020F08D0FFF768FE801B41F288339842C2
:10128400F3D9032077E0E5B9E369002B72D03E4A35
:10129400526802F00C02082A56D0022B17D03B4B9E
:1012A40000221A66FFF750FE0446374B1B6813F002
:1012B400007F47D0FFF748FE001B0228F5D9032022
:1012C40059E0314AD36923F08053D361DCE72F4BD3
:1012D40000221A66FFF738FE05462B4B1B6813F0F5
:1012E400007F06D0FFF730FE401B0228F5D903200B
:1012F40041E0236AB3F5803F1AD023494B6823F4B5
:101304007413226A606A024313434B601F4B012229
:101314001A66FFF719FE04461B4B1B6813F0007F87
:101324000ED1FFF711FE001B0228F5D9032022E09D
:10133400154A536823F40033A1680B435360DCE778
:10134400002018E0002016E0012B16D00E4B5B683D
:1013540003F48031226A914211D103F47013626A5A
:1013640093420ED1002006E001207047012002E0E4
:10137400012000E0002002B070BD0120FBE7012045
:10138400F9E70120F7E700BF0010024000004242E5
:101394000F4B5B6803F00C02082A01D00D4870471C
:1013A400C3F383420C49885C13F4803F0BD0084B91
:1013B4005B68C3F34043094AD35C064A02FB00F06E
:1013C400B0FBF3F07047064B03FB00F0704700BF1F
:1013D4000010024000127A002C1900083C19000881
:1013E40000093D00002800F0A08070B50D460446B9
:1013F400524B1B6803F007038B420BD24F4A13680E
:1014040023F007030B431360136803F007038B42B5
:1014140040F08D80236813F0020F17D013F0040FEF
:1014240004D0474A536843F4E0635360236813F0DD
:10143400080F04D0424A536843F460535360404A4F
:10144400536823F0F003A1680B435360236813F03F
:10145400010F31D06368012B20D0022B25D0384AEC
:10146400126812F0020F64D035494A6822F0030270
:1014740013434B60FFF768FD0646314B5B6803F08E
:101484000C036268B3EB820F16D0FFF75DFD801B7F
:1014940041F288339842F0D9032045E0284A126883
:1014A40012F4003FE0D101203EE0254A126812F018
:1014B400007FD9D1012037E0204B1B6803F00703DC
:1014C400AB420AD91D4A136823F007032B43136068
:1014D400136803F00703AB422DD1236813F0040F04
:1014E40006D0174A536823F4E063E1680B43536062
:1014F400236813F0080F07D0114A536823F460538C
:10150400216943EAC1035360FFF742FF0C4B5B6858
:10151400C3F303130B4AD35CD8400B4B18600B4B3B
:101524001868FFF7CDFC002070BD01207047012032
:10153400FAE70120F8E70120F6E700BF00200240A7
:101544000010024040190008080000200400002098
:1015540070B582B00024A446B0E0874DAA4210D0F2
:1015640007D9864DAA420CD005F58035AA4208D089
:1015740013E0A5F58015AA4203D005F57025AA420B
:1015840007D18A68002A62D0012A5BD0436108240B
:1015940003E0A5F58015AA42F3D0BEF1FF0F58D899
:1015A4000646BEF1FF0F56D84FEA8C0233680F256A
:1015B400954023EA050304FA02F2134333604B68AF
:1015C40013F0805F78D06E4B9A6942F001029A6101
:1015D4009B6903F001030193019B4FEA9C02951C54
:1015E400684B53F825600CF003039D000F23AB40B8
:1015F40026EA0306644B984233D003F5806398428D
:1016040000F0988003F58063984200F0958003F51C
:101614008063984200F0928003F58063984200F062
:101624008F8003F58063984219D006231AE0CC68B2
:10163400B3E7CC680434B0E7CC680834ADE7CC68D1
:101644000C34AAE703610824A7E70024A5E70424CF
:10165400A3E7061DA5E7ACF108029200A6E705235F
:1016640000E00023AB4033430232464D45F82230BC
:101674004B6813F4801F65D0444A936843EA0E0311
:1016840093604B6813F4001F62D0404AD36843EA66
:101694000E03D3604B6813F4003F5FD03B4A53689A
:1016A40043EA0E0353604B6813F4803F5CD0374A1F
:1016B400136843EA0E0313600CF1010C0A6832FA52
:1016C4000CF357D0012303FA0CF302EA030E33EAB6
:1016D4000202F1D14A68122A3FF63FAF122A3FF6BE
:1016E4005CAF01A555F822F08715000833160008F1
:1016F4003D1600084F1600089F1500089F150008A6
:101704009F1500089F1500089F1500089F150008E5
:101714009F1500089F1500089F1500089F150008D5
:101724009F1500089F1500089F150008371600082C
:1017340043160008012395E7022393E7032391E767
:1017440004238FE7114A936823EA0E03936098E712
:101754000E4AD36823EA0E03D3609BE70B4A53680F
:1017640023EA0E0353609EE7084A136823EA0E0334
:101774001360A1E702B070BD000022100000311018
:101784000010024000000140000801400004014034
:10179400074AD36823F4E0631B041B0C000200F423
:1017A400E060034343F0BF6343F40033D360704706
:1017B40000ED00E000B5194BDB68C3F30223C3F16D
:1017C400070CBCF1040F28BF4FF0040C03F1040E06
:1017D400BEF1060F18D9033B4FF0FF3E0EFA0CFC86
:1017E40021EA0C0199400EFA03F322EA0303194398
:1017F40000280BDB0901C9B200F1604000F561402B
:1018040080F800135DF804FB0023E5E700F00F0007
:101814000901C9B2024B1954F4E700BF00ED00E01E
:1018240014ED00E0002807DB00F01F02400901234B
:101834009340024A42F82030704700BF00E100E0C4
:101844000138B0F1807F0BD24FF0E0235861054A94
:10185400F02182F823100020986107221A61704752
:101864000120704700ED00E070470000FFF7FCFF27
:101874000B480C490C4A002302E0D458C4500433EA
:10188400C4188C42F9D3094A094C002301E01360BF
:101894000432A242FBD300F00FF8FEF72FFD70478D
:1018A400000000200C000020581900080C00002043
:1018B40088000020FEE7000070B500260C4D0D4C9A
:1018C400641BA410A64209D100F022F800260A4D98
:1018D4000A4C641BA410A64205D170BD55F8043B04
:1018E40098470136EEE755F8043B98470136F2E78E
:1018F400501900085019000850190008541900081C
:1019040003460244934200D1704703F8011BF9E7F0
:10191400F8B500BFF8BC08BC9E467047F8B500BFD8
:08192400F8BC08BC9E467047A8
:10192C0002030405060708090A0B0C0D0E0F101014
:10193C00010200000000000000000000010203048E
:04194C000607080979
:041950000902000880
:04195400E5010008A1
:0C195800010000001000000000127A00E6
:040000050800187166
:00000001FF
